{
  "contractName": "DivisibleNFTs",
  "abi": [
    {
      "inputs": [],
      "stateMutability": "payable",
      "type": "constructor",
      "payable": true
    },
    {
      "anonymous": false,
      "inputs": [
        {
          "indexed": false,
          "internalType": "uint256",
          "name": "_acoinBalance",
          "type": "uint256"
        },
        {
          "indexed": false,
          "internalType": "address payable",
          "name": "_caller",
          "type": "address"
        },
        {
          "indexed": false,
          "internalType": "string",
          "name": "_message",
          "type": "string"
        }
      ],
      "name": "acoinBalanceOfEvent",
      "type": "event"
    },
    {
      "anonymous": false,
      "inputs": [
        {
          "indexed": false,
          "internalType": "address",
          "name": "_owner",
          "type": "address"
        },
        {
          "indexed": false,
          "internalType": "string",
          "name": "_tokenId",
          "type": "string"
        },
        {
          "indexed": false,
          "internalType": "uint256",
          "name": "_units",
          "type": "uint256"
        },
        {
          "indexed": false,
          "internalType": "address payable",
          "name": "_caller",
          "type": "address"
        },
        {
          "indexed": false,
          "internalType": "string",
          "name": "_message",
          "type": "string"
        }
      ],
      "name": "addOwnerHoldingsEvent",
      "type": "event"
    },
    {
      "anonymous": false,
      "inputs": [
        {
          "indexed": false,
          "internalType": "address",
          "name": "_owner",
          "type": "address"
        },
        {
          "indexed": false,
          "internalType": "string",
          "name": "_tokenId",
          "type": "string"
        },
        {
          "indexed": false,
          "internalType": "uint256",
          "name": "_units",
          "type": "uint256"
        },
        {
          "indexed": false,
          "internalType": "address payable",
          "name": "_caller",
          "type": "address"
        },
        {
          "indexed": false,
          "internalType": "string",
          "name": "_message",
          "type": "string"
        }
      ],
      "name": "addShareEvent",
      "type": "event"
    },
    {
      "anonymous": false,
      "inputs": [
        {
          "indexed": false,
          "internalType": "address",
          "name": "_account",
          "type": "address"
        },
        {
          "indexed": false,
          "internalType": "uint256",
          "name": "_numACoins",
          "type": "uint256"
        },
        {
          "indexed": false,
          "internalType": "address payable",
          "name": "_caller",
          "type": "address"
        },
        {
          "indexed": false,
          "internalType": "string",
          "name": "_message",
          "type": "string"
        }
      ],
      "name": "burnACoinEvent",
      "type": "event"
    },
    {
      "anonymous": false,
      "inputs": [
        {
          "indexed": false,
          "internalType": "address",
          "name": "_account",
          "type": "address"
        },
        {
          "indexed": false,
          "internalType": "uint256",
          "name": "_numACoins",
          "type": "uint256"
        },
        {
          "indexed": false,
          "internalType": "address payable",
          "name": "_caller",
          "type": "address"
        },
        {
          "indexed": false,
          "internalType": "string",
          "name": "_message",
          "type": "string"
        }
      ],
      "name": "buyACoinEvent",
      "type": "event"
    },
    {
      "anonymous": false,
      "inputs": [
        {
          "indexed": false,
          "internalType": "uint256",
          "name": "_divisibility",
          "type": "uint256"
        },
        {
          "indexed": false,
          "internalType": "address payable",
          "name": "_caller",
          "type": "address"
        },
        {
          "indexed": false,
          "internalType": "string",
          "name": "_message",
          "type": "string"
        }
      ],
      "name": "divisibilityEvent",
      "type": "event"
    },
    {
      "anonymous": false,
      "inputs": [
        {
          "indexed": false,
          "internalType": "uint256",
          "name": "_acoinTotalSupply",
          "type": "uint256"
        },
        {
          "indexed": false,
          "internalType": "address payable",
          "name": "_caller",
          "type": "address"
        },
        {
          "indexed": false,
          "internalType": "string",
          "name": "_message",
          "type": "string"
        }
      ],
      "name": "getAcoinTotalSupplyEvent",
      "type": "event"
    },
    {
      "anonymous": false,
      "inputs": [
        {
          "indexed": false,
          "internalType": "address",
          "name": "_owner",
          "type": "address"
        },
        {
          "indexed": false,
          "internalType": "string",
          "name": "_tokenId",
          "type": "string"
        },
        {
          "indexed": false,
          "internalType": "uint256",
          "name": "_noOfShares",
          "type": "uint256"
        },
        {
          "indexed": false,
          "internalType": "uint256",
          "name": "_tokenTotalSupply",
          "type": "uint256"
        },
        {
          "indexed": false,
          "internalType": "address payable",
          "name": "_caller",
          "type": "address"
        },
        {
          "indexed": false,
          "internalType": "string",
          "name": "_message",
          "type": "string"
        }
      ],
      "name": "mintEvent",
      "type": "event"
    },
    {
      "anonymous": false,
      "inputs": [
        {
          "indexed": false,
          "internalType": "address",
          "name": "_owner",
          "type": "address"
        },
        {
          "indexed": false,
          "internalType": "string",
          "name": "_tokenId",
          "type": "string"
        },
        {
          "indexed": false,
          "internalType": "uint256",
          "name": "_units",
          "type": "uint256"
        },
        {
          "indexed": false,
          "internalType": "address payable",
          "name": "_caller",
          "type": "address"
        },
        {
          "indexed": false,
          "internalType": "string",
          "name": "_message",
          "type": "string"
        }
      ],
      "name": "removeOwnerHoldingsEvent",
      "type": "event"
    },
    {
      "anonymous": false,
      "inputs": [
        {
          "indexed": false,
          "internalType": "address",
          "name": "_owner",
          "type": "address"
        },
        {
          "indexed": false,
          "internalType": "string",
          "name": "_tokenId",
          "type": "string"
        },
        {
          "indexed": false,
          "internalType": "uint256",
          "name": "_units",
          "type": "uint256"
        },
        {
          "indexed": false,
          "internalType": "address payable",
          "name": "_caller",
          "type": "address"
        },
        {
          "indexed": false,
          "internalType": "string",
          "name": "_message",
          "type": "string"
        }
      ],
      "name": "removeShareEvent",
      "type": "event"
    },
    {
      "anonymous": false,
      "inputs": [
        {
          "indexed": false,
          "internalType": "uint256",
          "name": "_totalSupply",
          "type": "uint256"
        },
        {
          "indexed": false,
          "internalType": "address payable",
          "name": "_caller",
          "type": "address"
        },
        {
          "indexed": false,
          "internalType": "string",
          "name": "_message",
          "type": "string"
        }
      ],
      "name": "totalSupplyEvent",
      "type": "event"
    },
    {
      "anonymous": false,
      "inputs": [
        {
          "indexed": false,
          "internalType": "address",
          "name": "_from",
          "type": "address"
        },
        {
          "indexed": false,
          "internalType": "address",
          "name": "_to",
          "type": "address"
        },
        {
          "indexed": false,
          "internalType": "uint256",
          "name": "_numACoins",
          "type": "uint256"
        },
        {
          "indexed": false,
          "internalType": "address payable",
          "name": "_caller",
          "type": "address"
        },
        {
          "indexed": false,
          "internalType": "string",
          "name": "_message",
          "type": "string"
        }
      ],
      "name": "transferACoinEvent",
      "type": "event"
    },
    {
      "anonymous": false,
      "inputs": [
        {
          "indexed": false,
          "internalType": "address",
          "name": "_from",
          "type": "address"
        },
        {
          "indexed": false,
          "internalType": "address",
          "name": "_to",
          "type": "address"
        },
        {
          "indexed": false,
          "internalType": "string",
          "name": "_tokenId",
          "type": "string"
        },
        {
          "indexed": false,
          "internalType": "uint256",
          "name": "_units",
          "type": "uint256"
        },
        {
          "indexed": false,
          "internalType": "address payable",
          "name": "_caller",
          "type": "address"
        },
        {
          "indexed": false,
          "internalType": "string",
          "name": "_message",
          "type": "string"
        }
      ],
      "name": "transferTokenEvent",
      "type": "event"
    },
    {
      "anonymous": false,
      "inputs": [
        {
          "indexed": false,
          "internalType": "uint256",
          "name": "_balance",
          "type": "uint256"
        },
        {
          "indexed": false,
          "internalType": "address payable",
          "name": "_caller",
          "type": "address"
        },
        {
          "indexed": false,
          "internalType": "string",
          "name": "_message",
          "type": "string"
        }
      ],
      "name": "unitsOwnedOfATokenEvent",
      "type": "event"
    },
    {
      "inputs": [],
      "name": "decimals",
      "outputs": [
        {
          "internalType": "uint8",
          "name": "",
          "type": "uint8"
        }
      ],
      "stateMutability": "view",
      "type": "function",
      "constant": true
    },
    {
      "inputs": [],
      "name": "name",
      "outputs": [
        {
          "internalType": "string",
          "name": "",
          "type": "string"
        }
      ],
      "stateMutability": "view",
      "type": "function",
      "constant": true
    },
    {
      "inputs": [],
      "name": "symbol",
      "outputs": [
        {
          "internalType": "string",
          "name": "",
          "type": "string"
        }
      ],
      "stateMutability": "view",
      "type": "function",
      "constant": true
    },
    {
      "inputs": [],
      "name": "tokenTotalSupply",
      "outputs": [
        {
          "internalType": "uint256",
          "name": "",
          "type": "uint256"
        }
      ],
      "stateMutability": "view",
      "type": "function",
      "constant": true
    },
    {
      "inputs": [
        {
          "internalType": "address payable",
          "name": "_caller",
          "type": "address"
        }
      ],
      "name": "getAcoinTotalSupply",
      "outputs": [
        {
          "internalType": "uint256",
          "name": "",
          "type": "uint256"
        }
      ],
      "stateMutability": "nonpayable",
      "type": "function"
    },
    {
      "inputs": [
        {
          "internalType": "address",
          "name": "acoinOwner",
          "type": "address"
        }
      ],
      "name": "acoinBalanceOf",
      "outputs": [
        {
          "internalType": "uint256",
          "name": "",
          "type": "uint256"
        }
      ],
      "stateMutability": "view",
      "type": "function",
      "constant": true
    },
    {
      "inputs": [
        {
          "internalType": "address",
          "name": "account",
          "type": "address"
        },
        {
          "internalType": "uint256",
          "name": "numACoins",
          "type": "uint256"
        },
        {
          "internalType": "address payable",
          "name": "_caller",
          "type": "address"
        }
      ],
      "name": "buyACoin",
      "outputs": [],
      "stateMutability": "payable",
      "type": "function",
      "payable": true
    },
    {
      "inputs": [
        {
          "internalType": "address payable",
          "name": "account",
          "type": "address"
        },
        {
          "internalType": "uint256",
          "name": "numACoins",
          "type": "uint256"
        },
        {
          "internalType": "address payable",
          "name": "_caller",
          "type": "address"
        }
      ],
      "name": "burnACoin",
      "outputs": [],
      "stateMutability": "payable",
      "type": "function",
      "payable": true
    },
    {
      "inputs": [
        {
          "internalType": "address",
          "name": "sender",
          "type": "address"
        },
        {
          "internalType": "address",
          "name": "receiver",
          "type": "address"
        },
        {
          "internalType": "uint256",
          "name": "numACoins",
          "type": "uint256"
        },
        {
          "internalType": "address payable",
          "name": "_caller",
          "type": "address"
        }
      ],
      "name": "transferACoin",
      "outputs": [
        {
          "internalType": "bool",
          "name": "",
          "type": "bool"
        }
      ],
      "stateMutability": "nonpayable",
      "type": "function"
    },
    {
      "inputs": [
        {
          "internalType": "string",
          "name": "_tokenId",
          "type": "string"
        },
        {
          "internalType": "address payable",
          "name": "_caller",
          "type": "address"
        }
      ],
      "name": "divisibilityOfAToken",
      "outputs": [
        {
          "internalType": "uint256",
          "name": "_divisibility",
          "type": "uint256"
        }
      ],
      "stateMutability": "nonpayable",
      "type": "function"
    },
    {
      "inputs": [
        {
          "internalType": "address payable",
          "name": "_caller",
          "type": "address"
        }
      ],
      "name": "totalSupplyView",
      "outputs": [
        {
          "internalType": "uint256",
          "name": "_totalSupply",
          "type": "uint256"
        }
      ],
      "stateMutability": "nonpayable",
      "type": "function"
    },
    {
      "inputs": [
        {
          "internalType": "address",
          "name": "_owner",
          "type": "address"
        },
        {
          "internalType": "string",
          "name": "_tokenId",
          "type": "string"
        },
        {
          "internalType": "address payable",
          "name": "_caller",
          "type": "address"
        }
      ],
      "name": "unitsOwnedOfAToken",
      "outputs": [
        {
          "internalType": "uint256",
          "name": "_balance",
          "type": "uint256"
        }
      ],
      "stateMutability": "nonpayable",
      "type": "function"
    },
    {
      "inputs": [
        {
          "internalType": "address",
          "name": "_owner",
          "type": "address"
        },
        {
          "internalType": "string",
          "name": "_tokenId",
          "type": "string"
        },
        {
          "internalType": "uint256",
          "name": "_noOfShares",
          "type": "uint256"
        },
        {
          "internalType": "address payable",
          "name": "_caller",
          "type": "address"
        }
      ],
      "name": "mint",
      "outputs": [],
      "stateMutability": "nonpayable",
      "type": "function"
    },
    {
      "inputs": [
        {
          "internalType": "address",
          "name": "_from",
          "type": "address"
        },
        {
          "internalType": "address",
          "name": "_to",
          "type": "address"
        },
        {
          "internalType": "string",
          "name": "_tokenId",
          "type": "string"
        },
        {
          "internalType": "uint256",
          "name": "_units",
          "type": "uint256"
        },
        {
          "internalType": "address payable",
          "name": "_caller",
          "type": "address"
        }
      ],
      "name": "transferToken",
      "outputs": [],
      "stateMutability": "nonpayable",
      "type": "function"
    }
  ],
  "bytecode": "0x60806040526000600181905550600060078190555033600260006101000a81548173ffffffffffffffffffffffffffffffffffffffff021916908373ffffffffffffffffffffffffffffffffffffffff160217905550612328806100646000396000f3fe6080604052600436106100dd5760003560e01c80639c3df7111161007f578063c3be359f11610059578063c3be359f146102b8578063da32fcc8146102f5578063edc6fb6d14610332578063f7abab9e1461035b576100dd565b80639c3df71114610215578063af07e4a814610252578063bba9ea441461028f576100dd565b80637f11f448116100bb5780637f11f448146101755780638b652d171461019157806393737049146101ad57806395d89b41146101ea576100dd565b806306fdde03146100e25780631fdb3b991461010d578063313ce5671461014a575b600080fd5b3480156100ee57600080fd5b506100f7610386565b6040516101049190611192565b60405180910390f35b34801561011957600080fd5b50610134600480360381019061012f919061129a565b6103bf565b604051610141919061131c565b60405180910390f35b34801561015657600080fd5b5061015f61060b565b60405161016c9190611353565b60405180910390f35b61018f600480360381019061018a919061136e565b610610565b005b6101ab60048036038101906101a691906113c1565b610767565b005b3480156101b957600080fd5b506101d460048036038101906101cf9190611414565b6108e7565b6040516101e19190611450565b60405180910390f35b3480156101f657600080fd5b506101ff61092e565b60405161020c9190611192565b60405180910390f35b34801561022157600080fd5b5061023c60048036038101906102379190611414565b610967565b6040516102499190611450565b60405180910390f35b34801561025e57600080fd5b50610279600480360381019061027491906115a0565b6109ae565b6040516102869190611450565b60405180910390f35b34801561029b57600080fd5b506102b660048036038101906102b1919061160f565b610aa9565b005b3480156102c457600080fd5b506102df60048036038101906102da91906116a6565b610bc5565b6040516102ec9190611450565b60405180910390f35b34801561030157600080fd5b5061031c60048036038101906103179190611702565b610c45565b6040516103299190611450565b60405180910390f35b34801561033e57600080fd5b506103596004803603810190610354919061172f565b610c8d565b005b34801561036757600080fd5b50610370610dd5565b60405161037d9190611450565b60405180910390f35b6040518060400160405280600581526020017f41436f696e00000000000000000000000000000000000000000000000000000081525081565b6000600260009054906101000a900473ffffffffffffffffffffffffffffffffffffffff1673ffffffffffffffffffffffffffffffffffffffff163373ffffffffffffffffffffffffffffffffffffffff1614610451576040517f08c379a000000000000000000000000000000000000000000000000000000000815260040161044890611824565b60405180910390fd5b6000808673ffffffffffffffffffffffffffffffffffffffff1673ffffffffffffffffffffffffffffffffffffffff1681526020019081526020016000205483111561049c57600080fd5b6104ed836000808873ffffffffffffffffffffffffffffffffffffffff1673ffffffffffffffffffffffffffffffffffffffff16815260200190815260200160002054610ddb90919063ffffffff16565b6000808773ffffffffffffffffffffffffffffffffffffffff1673ffffffffffffffffffffffffffffffffffffffff16815260200190815260200160002081905550610580836000808773ffffffffffffffffffffffffffffffffffffffff1673ffffffffffffffffffffffffffffffffffffffff16815260200190815260200160002054610e0290919063ffffffff16565b6000808673ffffffffffffffffffffffffffffffffffffffff1673ffffffffffffffffffffffffffffffffffffffff168152602001908152602001600020819055507f6992faa82ee29db844a27cdd697868a4945bd323777aec54f05f6f22f0bc7faa858585856040516105f794939291906118ae565b60405180910390a160019050949350505050565b601281565b610661826000808673ffffffffffffffffffffffffffffffffffffffff1673ffffffffffffffffffffffffffffffffffffffff16815260200190815260200160002054610e0290919063ffffffff16565b6000808573ffffffffffffffffffffffffffffffffffffffff1673ffffffffffffffffffffffffffffffffffffffff168152602001908152602001600020819055506106b882600154610e0290919063ffffffff16565b600181905550600260009054906101000a900473ffffffffffffffffffffffffffffffffffffffff1673ffffffffffffffffffffffffffffffffffffffff166108fc349081150290604051600060405180830381858888f19350505050158015610726573d6000803e3d6000fd5b507ff316e092b0518493864304254ed96b5deadf34e2653c7fd788885c403259876283838360405161075a93929190611952565b60405180910390a1505050565b816000808573ffffffffffffffffffffffffffffffffffffffff1673ffffffffffffffffffffffffffffffffffffffff1681526020019081526020016000205410156107b257600080fd5b610803826000808673ffffffffffffffffffffffffffffffffffffffff1673ffffffffffffffffffffffffffffffffffffffff16815260200190815260200160002054610ddb90919063ffffffff16565b6000808573ffffffffffffffffffffffffffffffffffffffff1673ffffffffffffffffffffffffffffffffffffffff1681526020019081526020016000208190555061085a82600154610ddb90919063ffffffff16565b6001819055508273ffffffffffffffffffffffffffffffffffffffff166108fc349081150290604051600060405180830381858888f193505050501580156108a6573d6000803e3d6000fd5b507f6ec61e14a95cf5c673e41b0b4c2b336914e7f7fc7ec0d27d24cdc75c309fc0f58383836040516108da93929190611a47565b60405180910390a1505050565b60007f45910bb18b66f7c99d093d4a40f6f7f6f05d90ed03abcf1da10417b19d607f546007548360405161091c929190611add565b60405180910390a16007549050919050565b6040518060400160405280600581526020017f41434e465400000000000000000000000000000000000000000000000000000081525081565b60007f63e7c07bd7e9438021590fa99d8c3c6b433ac3488e86f9128a7b94b5af8248b16001548360405161099c929190611b65565b60405180910390a16001549050919050565b60007f94d4542efbe709fd4b77e4f553518a38860b6ec508f317f75387cadc977c576a600360008673ffffffffffffffffffffffffffffffffffffffff1673ffffffffffffffffffffffffffffffffffffffff16815260200190815260200160002084604051610a1e9190611bdd565b90815260200160405180910390205483604051610a3c929190611c40565b60405180910390a1600360008573ffffffffffffffffffffffffffffffffffffffff1673ffffffffffffffffffffffffffffffffffffffff16815260200190815260200160002083604051610a919190611bdd565b90815260200160405180910390205490509392505050565b8260011515600582604051610abe9190611bdd565b908152602001604051809103902060009054906101000a900460ff16151514610ae657600080fd5b82600360008873ffffffffffffffffffffffffffffffffffffffff1673ffffffffffffffffffffffffffffffffffffffff16815260200190815260200160002085604051610b349190611bdd565b9081526020016040518091039020541015610b4e57600080fd5b610b5a86858585610e2e565b610b6686858585610ee3565b610b7285858585610f98565b610b7e8585858561104d565b7f1bfb3e062301b862bda0182eeea9d6af5e60a672c2b197945098932e23cf3f7d8686868686604051610bb5959493929190611cee565b60405180910390a1505050505050565b60007f56f6633259eac99cc5331beb1eca9cd0c4af44e7250ff26d19608e4faef6551e600684604051610bf89190611bdd565b90815260200160405180910390205483604051610c16929190611dcd565b60405180910390a1600683604051610c2e9190611bdd565b908152602001604051809103902054905092915050565b60008060008373ffffffffffffffffffffffffffffffffffffffff1673ffffffffffffffffffffffffffffffffffffffff168152602001908152602001600020549050919050565b8260001515600582604051610ca29190611bdd565b908152602001604051809103902060009054906101000a900460ff16151514610cca57600080fd5b82600685604051610cdb9190611bdd565b9081526020016040518091039020819055506001600585604051610cff9190611bdd565b908152602001604051809103902060006101000a81548160ff021916908315150217905550610d4e8585600687604051610d399190611bdd565b90815260200160405180910390205485610f98565b610d788585600687604051610d639190611bdd565b9081526020016040518091039020548561104d565b6001600754610d879190611e38565b6007819055507f085d194830b068dc5452abc86ba006ddf00bc2b834246f02368b02f35af93eb285858560075486604051610dc6959493929190611ede565b60405180910390a15050505050565b60075481565b600082821115610dee57610ded611f4b565b5b8183610dfa9190611f7a565b905092915050565b6000808284610e119190611e38565b905083811015610e2457610e23611f4b565b5b8091505092915050565b81600360008673ffffffffffffffffffffffffffffffffffffffff1673ffffffffffffffffffffffffffffffffffffffff16815260200190815260200160002084604051610e7c9190611bdd565b90815260200160405180910390206000828254610e999190611f7a565b925050819055507f4a8dd1b5065e4650d8130c35f2f7810f04ef9e1ad4cd02c19b6f5d188406004184848484604051610ed59493929190612020565b60405180910390a150505050565b81600484604051610ef49190611bdd565b908152602001604051809103902060008673ffffffffffffffffffffffffffffffffffffffff1673ffffffffffffffffffffffffffffffffffffffff1681526020019081526020016000206000828254610f4e9190611f7a565b925050819055507f69fa79b48aab5f58e4a465a7feae2dbbccb177cb04db9d2e712de6ef840884aa84848484604051610f8a94939291906120f1565b60405180910390a150505050565b81600360008673ffffffffffffffffffffffffffffffffffffffff1673ffffffffffffffffffffffffffffffffffffffff16815260200190815260200160002084604051610fe69190611bdd565b908152602001604051809103902060008282546110039190611e38565b925050819055507fe0edd612d7ae227f86e7bf050b1ce651a5f2f6874ccbe11c44a5404be394927c8484848460405161103f94939291906121c2565b60405180910390a150505050565b8160048460405161105e9190611bdd565b908152602001604051809103902060008673ffffffffffffffffffffffffffffffffffffffff1673ffffffffffffffffffffffffffffffffffffffff16815260200190815260200160002060008282546110b89190611e38565b925050819055507f5f2429973260b9be275b16c966825d2f76cd54ef5e4183145fe3252004d211cb848484846040516110f49493929190612293565b60405180910390a150505050565b600081519050919050565b600082825260208201905092915050565b60005b8381101561113c578082015181840152602081019050611121565b60008484015250505050565b6000601f19601f8301169050919050565b600061116482611102565b61116e818561110d565b935061117e81856020860161111e565b61118781611148565b840191505092915050565b600060208201905081810360008301526111ac8184611159565b905092915050565b6000604051905090565b600080fd5b600080fd5b600073ffffffffffffffffffffffffffffffffffffffff82169050919050565b60006111f3826111c8565b9050919050565b611203816111e8565b811461120e57600080fd5b50565b600081359050611220816111fa565b92915050565b6000819050919050565b61123981611226565b811461124457600080fd5b50565b60008135905061125681611230565b92915050565b6000611267826111c8565b9050919050565b6112778161125c565b811461128257600080fd5b50565b6000813590506112948161126e565b92915050565b600080600080608085870312156112b4576112b36111be565b5b60006112c287828801611211565b94505060206112d387828801611211565b93505060406112e487828801611247565b92505060606112f587828801611285565b91505092959194509250565b60008115159050919050565b61131681611301565b82525050565b6000602082019050611331600083018461130d565b92915050565b600060ff82169050919050565b61134d81611337565b82525050565b60006020820190506113686000830184611344565b92915050565b600080600060608486031215611387576113866111be565b5b600061139586828701611211565b93505060206113a686828701611247565b92505060406113b786828701611285565b9150509250925092565b6000806000606084860312156113da576113d96111be565b5b60006113e886828701611285565b93505060206113f986828701611247565b925050604061140a86828701611285565b9150509250925092565b60006020828403121561142a576114296111be565b5b600061143884828501611285565b91505092915050565b61144a81611226565b82525050565b60006020820190506114656000830184611441565b92915050565b600080fd5b600080fd5b7f4e487b7100000000000000000000000000000000000000000000000000000000600052604160045260246000fd5b6114ad82611148565b810181811067ffffffffffffffff821117156114cc576114cb611475565b5b80604052505050565b60006114df6111b4565b90506114eb82826114a4565b919050565b600067ffffffffffffffff82111561150b5761150a611475565b5b61151482611148565b9050602081019050919050565b82818337600083830152505050565b600061154361153e846114f0565b6114d5565b90508281526020810184848401111561155f5761155e611470565b5b61156a848285611521565b509392505050565b600082601f8301126115875761158661146b565b5b8135611597848260208601611530565b91505092915050565b6000806000606084860312156115b9576115b86111be565b5b60006115c786828701611211565b935050602084013567ffffffffffffffff8111156115e8576115e76111c3565b5b6115f486828701611572565b925050604061160586828701611285565b9150509250925092565b600080600080600060a0868803121561162b5761162a6111be565b5b600061163988828901611211565b955050602061164a88828901611211565b945050604086013567ffffffffffffffff81111561166b5761166a6111c3565b5b61167788828901611572565b935050606061168888828901611247565b925050608061169988828901611285565b9150509295509295909350565b600080604083850312156116bd576116bc6111be565b5b600083013567ffffffffffffffff8111156116db576116da6111c3565b5b6116e785828601611572565b92505060206116f885828601611285565b9150509250929050565b600060208284031215611718576117176111be565b5b600061172684828501611211565b91505092915050565b60008060008060808587031215611749576117486111be565b5b600061175787828801611211565b945050602085013567ffffffffffffffff811115611778576117776111c3565b5b61178487828801611572565b935050604061179587828801611247565b92505060606117a687828801611285565b91505092959194509250565b7f4f6e6c79206f776e65722063616e20696e766f6b6520746865207472616e736660008201527f6572206f662041436f696e730000000000000000000000000000000000000000602082015250565b600061180e602c8361110d565b9150611819826117b2565b604082019050919050565b6000602082019050818103600083015261183d81611801565b9050919050565b61184d816111e8565b82525050565b61185c8161125c565b82525050565b7f7472616e73666572436f696e0000000000000000000000000000000000000000600082015250565b6000611898600c8361110d565b91506118a382611862565b602082019050919050565b600060a0820190506118c36000830187611844565b6118d06020830186611844565b6118dd6040830185611441565b6118ea6060830184611853565b81810360808301526118fb8161188b565b905095945050505050565b7f62757941436f696e000000000000000000000000000000000000000000000000600082015250565b600061193c60088361110d565b915061194782611906565b602082019050919050565b60006080820190506119676000830186611844565b6119746020830185611441565b6119816040830184611853565b81810360608301526119928161192f565b9050949350505050565b6000819050919050565b60006119c16119bc6119b7846111c8565b61199c565b6111c8565b9050919050565b60006119d3826119a6565b9050919050565b60006119e5826119c8565b9050919050565b6119f5816119da565b82525050565b7f6275726e41436f696e0000000000000000000000000000000000000000000000600082015250565b6000611a3160098361110d565b9150611a3c826119fb565b602082019050919050565b6000608082019050611a5c60008301866119ec565b611a696020830185611441565b611a766040830184611853565b8181036060830152611a8781611a24565b9050949350505050565b7f746f74616c537570706c79566965770000000000000000000000000000000000600082015250565b6000611ac7600f8361110d565b9150611ad282611a91565b602082019050919050565b6000606082019050611af26000830185611441565b611aff6020830184611853565b8181036040830152611b1081611aba565b90509392505050565b7f67657441636f696e546f74616c537570706c7900000000000000000000000000600082015250565b6000611b4f60138361110d565b9150611b5a82611b19565b602082019050919050565b6000606082019050611b7a6000830185611441565b611b876020830184611853565b8181036040830152611b9881611b42565b90509392505050565b600081905092915050565b6000611bb782611102565b611bc18185611ba1565b9350611bd181856020860161111e565b80840191505092915050565b6000611be98284611bac565b915081905092915050565b7f756e6974734f776e65644f6641546f6b656e0000000000000000000000000000600082015250565b6000611c2a60128361110d565b9150611c3582611bf4565b602082019050919050565b6000606082019050611c556000830185611441565b611c626020830184611853565b8181036040830152611c7381611c1d565b90509392505050565b7f7472616e73666572202d207472616e73666572207061727473206f662061207460008201527f6f6b656e20746f20616e6f746865722075736572000000000000000000000000602082015250565b6000611cd860348361110d565b9150611ce382611c7c565b604082019050919050565b600060c082019050611d036000830188611844565b611d106020830187611844565b8181036040830152611d228186611159565b9050611d316060830185611441565b611d3e6080830184611853565b81810360a0830152611d4f81611ccb565b90509695505050505050565b7f64697669736962696c6974794f6641546f6b656e202d2054686520646976697360008201527f69626c69747920616d6f756e74206f66206120746f6b656e0000000000000000602082015250565b6000611db760388361110d565b9150611dc282611d5b565b604082019050919050565b6000606082019050611de26000830185611441565b611def6020830184611853565b8181036040830152611e0081611daa565b90509392505050565b7f4e487b7100000000000000000000000000000000000000000000000000000000600052601160045260246000fd5b6000611e4382611226565b9150611e4e83611226565b9250828201905080821115611e6657611e65611e09565b5b92915050565b7f6d696e74202d204d696e74696e67206772616e74732031303025206f6620746860008201527f6520746f6b656e20746f2061206e6577206f776e657200000000000000000000602082015250565b6000611ec860368361110d565b9150611ed382611e6c565b604082019050919050565b600060c082019050611ef36000830188611844565b8181036020830152611f058187611159565b9050611f146040830186611441565b611f216060830185611441565b611f2e6080830184611853565b81810360a0830152611f3f81611ebb565b90509695505050505050565b7f4e487b7100000000000000000000000000000000000000000000000000000000600052600160045260246000fd5b6000611f8582611226565b9150611f9083611226565b9250828203905081811115611fa857611fa7611e09565b5b92915050565b7f5f72656d6f7665536861726546726f6d4c6173744f776e6572202d2052656d6f60008201527f766520746f6b656e20756e6974732066726f6d206c617374206f776e65720000602082015250565b600061200a603e8361110d565b915061201582611fae565b604082019050919050565b600060a0820190506120356000830187611844565b81810360208301526120478186611159565b90506120566040830185611441565b6120636060830184611853565b818103608083015261207481611ffd565b905095945050505050565b7f5f72656d6f76654c6173744f776e6572486f6c64696e677346726f6d546f6b6560008201527f6e202d2052656d6f766520756e6974732066726f6d206c617374206f776e6572602082015250565b60006120db60408361110d565b91506120e68261207f565b604082019050919050565b600060a0820190506121066000830187611844565b81810360208301526121188186611159565b90506121276040830185611441565b6121346060830184611853565b8181036080830152612145816120ce565b905095945050505050565b7f5f6164645368617265546f4e65774f776e6572202d2041646420746f6b656e2060008201527f756e69747320746f206e6577206f776e65720000000000000000000000000000602082015250565b60006121ac60328361110d565b91506121b782612150565b604082019050919050565b600060a0820190506121d76000830187611844565b81810360208301526121e98186611159565b90506121f86040830185611441565b6122056060830184611853565b81810360808301526122168161219f565b905095945050505050565b7f5f6164644e65774f776e6572486f6c64696e6773546f546f6b656e202d20416460008201527f642074686520756e69747320746f206e6577206f776e65720000000000000000602082015250565b600061227d60388361110d565b915061228882612221565b604082019050919050565b600060a0820190506122a86000830187611844565b81810360208301526122ba8186611159565b90506122c96040830185611441565b6122d66060830184611853565b81810360808301526122e781612270565b90509594505050505056fea2646970667358221220e43d083f4d99bfc09b7b06276f99a656b0d4e072a1d32feb68a179ad9d8e5d6464736f6c63430008100033",
  "immutableReferences": {},
  "source": "// SPDX-License-Identifier: MIT\r\npragma solidity ^0.8.9;\r\n\r\ncontract DivisibleNFTs {\r\n    using SafeMath for uint256;\r\n\r\n    // ----------------------- Variables for ACoin ------------------------\r\n    string public constant name = \"ACoin\"; // Name of the coin\r\n    string public constant symbol = \"ACNFT\"; // Ticker for ACoin\r\n    uint8 public constant decimals = 18; // Precision of use for the ACoin\r\n    mapping(address => uint256) acoinBalances; // ACoin balances of the Traders\r\n    uint256 acoinTotalSupply; // Total supply of the ACoin\r\n    address payable owner;\r\n\r\n    // ------------------------------ All Events ------------------------------\r\n\tevent unitsOwnedOfATokenEvent(uint256  _balance, address payable _caller, string _message);\r\n\r\n\tevent divisibilityEvent(uint256 _divisibility, address payable _caller, string _message);\r\n\r\n\tevent mintEvent(address _owner, string _tokenId, uint _noOfShares, uint _tokenTotalSupply, address payable _caller, string _message);\r\n\r\n\tevent transferTokenEvent(address _from, address _to, string _tokenId, uint _units, address payable _caller, string _message);\r\n\r\n\tevent totalSupplyEvent(uint256 _totalSupply, address payable _caller, string _message);\r\n\r\n\tevent buyACoinEvent(address _account, uint _numACoins, address payable _caller, string _message);\r\n\r\n\tevent burnACoinEvent(address _account, uint _numACoins, address payable _caller, string _message);\r\n\r\n    event transferACoinEvent(address _from, address _to, uint _numACoins, address payable _caller, string _message);\r\n\r\n\tevent getAcoinTotalSupplyEvent( uint _acoinTotalSupply, address payable _caller, string _message);\r\n\r\n\tevent acoinBalanceOfEvent(uint _acoinBalance, address payable _caller, string _message);\r\n\r\n    event removeShareEvent(address _owner, string _tokenId, uint256 _units, address payable _caller, string _message);\r\n\r\n    event addShareEvent(address _owner, string _tokenId, uint256 _units, address payable _caller, string _message);\r\n\r\n    event removeOwnerHoldingsEvent(address _owner, string _tokenId, uint256 _units, address payable _caller, string _message);\r\n\r\n    event addOwnerHoldingsEvent(address _owner, string _tokenId, uint256 _units, address payable _caller, string _message);\r\n\r\n    // ----------------------- Variables for Non Fungible Token Management------------------------\r\n\r\n    // Percentage of ownership over a token\r\n    mapping(address => mapping(string => uint256)) ownerToTokenShare;\r\n    // {user_account_address --> tokenId --> amount_holded_of_that_tokenId_by_that_address}\r\n\r\n    // How much owners have of a token\r\n    mapping(string => mapping(address => uint256)) tokenToOwnersHoldings;\r\n    // {tokenId --> user_account_address --> amount_holded_of_that_tokenId_by_that_address}\r\n\r\n    // If a token has been created\r\n    mapping(string => bool) mintedToken;\r\n    // tokenId --> returns true or false if the token with that Id is minted\r\n\r\n    // Number of equal(fungible) units that constitute a token (that a token can be divised to)\r\n    mapping(string => uint256) divisibility; // All tokens would have a different divisibilit factor\r\n    // Divisibility for each token is basically the amount of shares that NFT has\r\n\r\n    // total of managed/tracked tokens by this smart contract\r\n    uint256 public tokenTotalSupply;\r\n\r\n    // ------------------------------ Constructor ------------------------------\r\n    constructor() payable {\r\n        acoinTotalSupply = 0;\r\n\t\ttokenTotalSupply = 0;\r\n        owner = payable(msg.sender);\r\n    }\r\n\r\n    // ====================== Everything related to ACoin =========================\r\n\r\n    // ------------------------------ Modifiers ------------------------------\r\n    // Modifier to check that the caller is the owner of\r\n    // the contract.\r\n    modifier onlyOwner() {\r\n        require(\r\n            msg.sender == owner,\r\n            \"Only owner can invoke the transfer of ACoins\"\r\n        );\r\n        _;\r\n    }\r\n\r\n    // ------------------------------ View functions ------------------------------\r\n\r\n    /// @dev The total ACoins in circulation at the moment of invocation of this function\r\n    function getAcoinTotalSupply(address payable _caller) public returns (uint256) {\r\n\t\temit getAcoinTotalSupplyEvent(acoinTotalSupply, _caller, \"getAcoinTotalSupply\");\r\n        return acoinTotalSupply;\r\n    }\r\n\r\n    /// @dev The ACoin balance of that address\r\n    function acoinBalanceOf(address acoinOwner) public view returns (uint256) {\r\n\t\t// emit acoinBalanceOfEvent( acoinBalances[acoinOwner], _caller, \"acoinBalanceOf\");\r\n        return acoinBalances[acoinOwner];\r\n    }\r\n\r\n    \r\n\r\n    // ------------------------------ Core public functions ------------------------------\r\n    \r\n\t/// @dev Buying ACoin, transferring ETH to owner\r\n    function buyACoin(address account, uint numACoins, address payable _caller)\r\n\t\tpayable\r\n        public \r\n    {\r\n        acoinBalances[account] = acoinBalances[account].add(numACoins);\r\n\t\tacoinTotalSupply = acoinTotalSupply.add(numACoins);\r\n        payable(owner).transfer(msg.value);\r\n\t\t// payable(owner).transfer(numACoins);\r\n        emit buyACoinEvent(account, numACoins, _caller, \"buyACoin\");\r\n    }\r\n\r\n\t/// @dev Withdrawing ETH from ACoin, transferring ETH to user from owner\r\n    function burnACoin(address payable account, uint numACoins, address payable _caller)\r\n\t\tpayable\r\n        public \r\n        \r\n    {\r\n\t\trequire(acoinBalances[account] >= numACoins);\r\n        acoinBalances[account] = acoinBalances[account].sub(numACoins);\r\n\t\tacoinTotalSupply = acoinTotalSupply.sub(numACoins);\r\n        payable(account).transfer(msg.value);\r\n\t\t// payable(account).transfer(numACoins);\r\n        emit burnACoinEvent(account, numACoins, _caller, \"burnACoin\");\r\n    }\r\n\t\r\n\t/// @dev Transferring ACoin from one user account to another\r\n    function transferACoin(address sender, address receiver, uint256 numACoins, address payable _caller)\r\n        public\r\n        onlyOwner\r\n        returns (bool)\r\n    {\r\n        require(numACoins <= acoinBalances[sender]);\r\n        acoinBalances[sender] = acoinBalances[sender].sub(numACoins);\r\n        acoinBalances[receiver] = acoinBalances[receiver].add(numACoins);\r\n        emit transferACoinEvent(sender, receiver, numACoins, _caller, \"transferCoin\");\r\n        return true;\r\n    }\r\n\r\n\r\n    // ====================== Everything related to Dividing the NFT =========================\r\n    // ------------------------------ Modifiers ------------------------------\r\n\r\n    modifier onlyNonExistentToken(string memory _tokenId) {\r\n        require(mintedToken[_tokenId] == false);\r\n        _;\r\n    }\r\n\r\n    modifier onlyExistentToken(string memory _tokenId) {\r\n        require(mintedToken[_tokenId] == true);\r\n        _;\r\n    }\r\n\r\n    // ------------------------------ View functions ------------------------------\r\n\r\n    /// @dev The divisiblity amount of a token\r\n\tfunction divisibilityOfAToken(string memory _tokenId, address payable _caller) public returns (uint _divisibility)\r\n\t{\r\n\t\temit divisibilityEvent(divisibility[_tokenId], _caller, \"divisibilityOfAToken - The divisiblity amount of a token\");\r\n\t    return divisibility[_tokenId];\r\n\t}\r\n\r\n\t/// @dev The amount of a totalSupply\r\n    // Earlier totalSupplyView()\r\n\tfunction totalSupplyView(address payable _caller) public returns (uint _totalSupply)\r\n\t{\r\n\t\temit totalSupplyEvent(tokenTotalSupply, _caller, \"totalSupplyView\");\r\n\t    return tokenTotalSupply;\r\n\t}\r\n\r\n    /// @dev The balance an owner have of a token\r\n    function unitsOwnedOfAToken(address _owner, string memory _tokenId, address payable _caller)\r\n        public\r\n        returns (uint256 _balance)\r\n    {\r\n\t\temit unitsOwnedOfATokenEvent(ownerToTokenShare[_owner][_tokenId], _caller, \"unitsOwnedOfAToken\");\r\n        return ownerToTokenShare[_owner][_tokenId];\r\n    }\r\n\r\n    // ------------------------------ Core public functions ------------------------------\r\n\r\n    /// @dev Anybody can create a token in our example\r\n    /// @notice Minting grants 100% of the token to a new owner in our example\r\n    function mint(\r\n        address _owner,\r\n        string memory _tokenId,\r\n        uint256 _noOfShares,\r\n        address payable _caller\r\n    ) public onlyNonExistentToken(_tokenId) {\r\n\r\n        divisibility[_tokenId] = _noOfShares;\r\n\r\n        mintedToken[_tokenId] = true;\r\n\r\n        _addShareToNewOwner(_owner, _tokenId, divisibility[_tokenId], _caller);\r\n        _addNewOwnerHoldingsToToken(_owner, _tokenId, divisibility[_tokenId], _caller);\r\n\r\n        tokenTotalSupply = tokenTotalSupply + 1;\r\n        emit mintEvent(_owner, _tokenId, _noOfShares, tokenTotalSupply, _caller, \"mint - Minting grants 100% of the token to a new owner\");\r\n\r\n        //Minted(_owner, _tokenId); // emit event\r\n    }\r\n\r\n    /// @dev transfer parts of a token to another user\r\n    // Earlier transfer(_from, _to, _tokenId, _units)\r\n    function transferToken(\r\n        address _from,\r\n        address _to,\r\n        string memory _tokenId,\r\n        uint256 _units,\r\n        address payable _caller\r\n    ) public onlyExistentToken(_tokenId) {\r\n        require(ownerToTokenShare[_from][_tokenId] >= _units);\r\n        // TODO should check _to address to avoid losing tokens units\r\n\r\n        _removeShareFromLastOwner(_from, _tokenId, _units, _caller);\r\n        _removeLastOwnerHoldingsFromToken(_from, _tokenId, _units, _caller);\r\n\r\n        _addShareToNewOwner(_to, _tokenId, _units, _caller);\r\n        _addNewOwnerHoldingsToToken(_to, _tokenId, _units, _caller);\r\n        emit transferTokenEvent(_from,  _to,  _tokenId,  _units, _caller, \"transfer - transfer parts of a token to another user\");\r\n\r\n        //Transfer(msg.sender, _to, _tokenId, _units); // emit event\r\n    }\r\n\r\n    // ------------------------------ Helper functions (internal functions) ------------------------------\r\n\r\n    // Remove token units from last owner\r\n    function _removeShareFromLastOwner(\r\n        address _owner,\r\n        string memory _tokenId,\r\n        uint256 _units,\r\n        address payable _caller\r\n    ) internal {\r\n        ownerToTokenShare[_owner][_tokenId] -= _units;\r\n        emit removeShareEvent(_owner, _tokenId, _units, _caller, \"_removeShareFromLastOwner - Remove token units from last owner\");\r\n\r\n    }\r\n\r\n    // Add token units to new owner\r\n    function _addShareToNewOwner(\r\n        address _owner,\r\n        string memory _tokenId,\r\n        uint256 _units,\r\n        address payable _caller\r\n    ) internal {\r\n        ownerToTokenShare[_owner][_tokenId] += _units;\r\n        emit addShareEvent(_owner, _tokenId, _units, _caller, \"_addShareToNewOwner - Add token units to new owner\");\r\n\r\n    }\r\n\r\n    // Remove units from last owner\r\n    function _removeLastOwnerHoldingsFromToken(\r\n        address _owner,\r\n        string memory _tokenId,\r\n        uint256 _units,\r\n        address payable _caller\r\n    ) internal {\r\n        tokenToOwnersHoldings[_tokenId][_owner] -= _units;\r\n        emit removeOwnerHoldingsEvent(_owner, _tokenId, _units, _caller, \"_removeLastOwnerHoldingsFromToken - Remove units from last owner\");\r\n\r\n    }\r\n\r\n    // Add the units to new owner\r\n    function _addNewOwnerHoldingsToToken(\r\n        address _owner,\r\n        string memory _tokenId,\r\n        uint256 _units,\r\n        address payable _caller\r\n    ) internal {\r\n        tokenToOwnersHoldings[_tokenId][_owner] += _units;\r\n        emit addOwnerHoldingsEvent(_owner, _tokenId, _units, _caller, \"_addNewOwnerHoldingsToToken - Add the units to new owner\");\r\n\r\n    }\r\n}\r\n\r\n\r\nlibrary SafeMath {\r\n    function sub(uint256 a, uint256 b) internal pure returns (uint256) {\r\n        assert(b <= a);\r\n        return a - b;\r\n    }\r\n\r\n    function add(uint256 a, uint256 b) internal pure returns (uint256) {\r\n        uint256 c = a + b;\r\n        assert(c >= a);\r\n        return c;\r\n    }\r\n}",
  "sourcePath": "D:\\Desktop\\fungtrix\\fungtrix-server\\blockchain\\contracts\\DivisibleNFTs.sol",
  "compiler": {
    "name": "solc",
    "version": "0.8.16+commit.07a7930e.Emscripten.clang"
  },
  "schemaVersion": "3.4.10",
  "updatedAt": "2023-02-18T19:39:19.653Z",
  "networkType": "ethereum",
  "devdoc": {
    "kind": "dev",
    "methods": {
      "acoinBalanceOf(address)": {
        "details": "The ACoin balance of that address"
      },
      "burnACoin(address,uint256,address)": {
        "details": "Withdrawing ETH from ACoin, transferring ETH to user from owner"
      },
      "buyACoin(address,uint256,address)": {
        "details": "Buying ACoin, transferring ETH to owner"
      },
      "divisibilityOfAToken(string,address)": {
        "details": "The divisiblity amount of a token"
      },
      "getAcoinTotalSupply(address)": {
        "details": "The total ACoins in circulation at the moment of invocation of this function"
      },
      "mint(address,string,uint256,address)": {
        "details": "Anybody can create a token in our example"
      },
      "totalSupplyView(address)": {
        "details": "The amount of a totalSupply"
      },
      "transferACoin(address,address,uint256,address)": {
        "details": "Transferring ACoin from one user account to another"
      },
      "transferToken(address,address,string,uint256,address)": {
        "details": "transfer parts of a token to another user"
      },
      "unitsOwnedOfAToken(address,string,address)": {
        "details": "The balance an owner have of a token"
      }
    },
    "version": 1
  },
  "userdoc": {
    "kind": "user",
    "methods": {
      "mint(address,string,uint256,address)": {
        "notice": "Minting grants 100% of the token to a new owner in our example"
      }
    },
    "version": 1
  }
}