{
  "contractName": "DivisibleNFTs",
  "abi": [
    {
      "inputs": [],
      "stateMutability": "payable",
      "type": "constructor",
      "payable": true
    },
    {
      "anonymous": false,
      "inputs": [
        {
          "indexed": false,
          "internalType": "uint256",
          "name": "_acoinBalance",
          "type": "uint256"
        },
        {
          "indexed": false,
          "internalType": "address payable",
          "name": "_caller",
          "type": "address"
        },
        {
          "indexed": false,
          "internalType": "string",
          "name": "_message",
          "type": "string"
        }
      ],
      "name": "acoinBalanceOfEvent",
      "type": "event"
    },
    {
      "anonymous": false,
      "inputs": [
        {
          "indexed": false,
          "internalType": "address",
          "name": "_owner",
          "type": "address"
        },
        {
          "indexed": false,
          "internalType": "string",
          "name": "_tokenId",
          "type": "string"
        },
        {
          "indexed": false,
          "internalType": "uint256",
          "name": "_units",
          "type": "uint256"
        },
        {
          "indexed": false,
          "internalType": "string",
          "name": "_message",
          "type": "string"
        }
      ],
      "name": "addOwnerHoldingsEvent",
      "type": "event"
    },
    {
      "anonymous": false,
      "inputs": [
        {
          "indexed": false,
          "internalType": "address",
          "name": "_owner",
          "type": "address"
        },
        {
          "indexed": false,
          "internalType": "string",
          "name": "_tokenId",
          "type": "string"
        },
        {
          "indexed": false,
          "internalType": "uint256",
          "name": "_units",
          "type": "uint256"
        },
        {
          "indexed": false,
          "internalType": "string",
          "name": "_message",
          "type": "string"
        }
      ],
      "name": "addShareEvent",
      "type": "event"
    },
    {
      "anonymous": false,
      "inputs": [
        {
          "indexed": false,
          "internalType": "address",
          "name": "_account",
          "type": "address"
        },
        {
          "indexed": false,
          "internalType": "uint256",
          "name": "_numACoins",
          "type": "uint256"
        },
        {
          "indexed": false,
          "internalType": "address payable",
          "name": "_caller",
          "type": "address"
        },
        {
          "indexed": false,
          "internalType": "string",
          "name": "_message",
          "type": "string"
        }
      ],
      "name": "burnACoinEvent",
      "type": "event"
    },
    {
      "anonymous": false,
      "inputs": [
        {
          "indexed": false,
          "internalType": "address",
          "name": "_account",
          "type": "address"
        },
        {
          "indexed": false,
          "internalType": "uint256",
          "name": "_numACoins",
          "type": "uint256"
        },
        {
          "indexed": false,
          "internalType": "address payable",
          "name": "_caller",
          "type": "address"
        },
        {
          "indexed": false,
          "internalType": "string",
          "name": "_message",
          "type": "string"
        }
      ],
      "name": "burnACoinINREvent",
      "type": "event"
    },
    {
      "anonymous": false,
      "inputs": [
        {
          "indexed": false,
          "internalType": "address",
          "name": "_account",
          "type": "address"
        },
        {
          "indexed": false,
          "internalType": "uint256",
          "name": "_numACoins",
          "type": "uint256"
        },
        {
          "indexed": false,
          "internalType": "address payable",
          "name": "_caller",
          "type": "address"
        },
        {
          "indexed": false,
          "internalType": "string",
          "name": "_message",
          "type": "string"
        }
      ],
      "name": "buyACoinEvent",
      "type": "event"
    },
    {
      "anonymous": false,
      "inputs": [
        {
          "indexed": false,
          "internalType": "address",
          "name": "_account",
          "type": "address"
        },
        {
          "indexed": false,
          "internalType": "uint256",
          "name": "_numACoins",
          "type": "uint256"
        },
        {
          "indexed": false,
          "internalType": "address payable",
          "name": "_caller",
          "type": "address"
        },
        {
          "indexed": false,
          "internalType": "string",
          "name": "_message",
          "type": "string"
        }
      ],
      "name": "buyACoinINREvent",
      "type": "event"
    },
    {
      "anonymous": false,
      "inputs": [
        {
          "indexed": false,
          "internalType": "uint256",
          "name": "_divisibility",
          "type": "uint256"
        },
        {
          "indexed": false,
          "internalType": "address payable",
          "name": "_caller",
          "type": "address"
        },
        {
          "indexed": false,
          "internalType": "string",
          "name": "_message",
          "type": "string"
        }
      ],
      "name": "divisibilityEvent",
      "type": "event"
    },
    {
      "anonymous": false,
      "inputs": [
        {
          "indexed": false,
          "internalType": "uint256",
          "name": "_acoinTotalSupply",
          "type": "uint256"
        },
        {
          "indexed": false,
          "internalType": "address payable",
          "name": "_caller",
          "type": "address"
        },
        {
          "indexed": false,
          "internalType": "string",
          "name": "_message",
          "type": "string"
        }
      ],
      "name": "getAcoinTotalSupplyEvent",
      "type": "event"
    },
    {
      "anonymous": false,
      "inputs": [
        {
          "indexed": false,
          "internalType": "address",
          "name": "_owner",
          "type": "address"
        },
        {
          "indexed": false,
          "internalType": "string",
          "name": "_tokenId",
          "type": "string"
        },
        {
          "indexed": false,
          "internalType": "uint256",
          "name": "_noOfShares",
          "type": "uint256"
        },
        {
          "indexed": false,
          "internalType": "uint256",
          "name": "_tokenTotalSupply",
          "type": "uint256"
        },
        {
          "indexed": false,
          "internalType": "address payable",
          "name": "_caller",
          "type": "address"
        },
        {
          "indexed": false,
          "internalType": "string",
          "name": "_message",
          "type": "string"
        }
      ],
      "name": "mintEvent",
      "type": "event"
    },
    {
      "anonymous": false,
      "inputs": [
        {
          "indexed": false,
          "internalType": "address",
          "name": "_owner",
          "type": "address"
        },
        {
          "indexed": false,
          "internalType": "string",
          "name": "_tokenId",
          "type": "string"
        },
        {
          "indexed": false,
          "internalType": "uint256",
          "name": "_units",
          "type": "uint256"
        },
        {
          "indexed": false,
          "internalType": "string",
          "name": "_message",
          "type": "string"
        }
      ],
      "name": "removeOwnerHoldingsEvent",
      "type": "event"
    },
    {
      "anonymous": false,
      "inputs": [
        {
          "indexed": false,
          "internalType": "address",
          "name": "_owner",
          "type": "address"
        },
        {
          "indexed": false,
          "internalType": "string",
          "name": "_tokenId",
          "type": "string"
        },
        {
          "indexed": false,
          "internalType": "uint256",
          "name": "_units",
          "type": "uint256"
        },
        {
          "indexed": false,
          "internalType": "string",
          "name": "_message",
          "type": "string"
        }
      ],
      "name": "removeShareEvent",
      "type": "event"
    },
    {
      "anonymous": false,
      "inputs": [
        {
          "indexed": false,
          "internalType": "uint256",
          "name": "_totalSupply",
          "type": "uint256"
        },
        {
          "indexed": false,
          "internalType": "address payable",
          "name": "_caller",
          "type": "address"
        },
        {
          "indexed": false,
          "internalType": "string",
          "name": "_message",
          "type": "string"
        }
      ],
      "name": "totalSupplyEvent",
      "type": "event"
    },
    {
      "anonymous": false,
      "inputs": [
        {
          "indexed": false,
          "internalType": "address",
          "name": "_from",
          "type": "address"
        },
        {
          "indexed": false,
          "internalType": "address",
          "name": "_to",
          "type": "address"
        },
        {
          "indexed": false,
          "internalType": "uint256",
          "name": "_numACoins",
          "type": "uint256"
        },
        {
          "indexed": false,
          "internalType": "address payable",
          "name": "_caller",
          "type": "address"
        },
        {
          "indexed": false,
          "internalType": "string",
          "name": "_message",
          "type": "string"
        }
      ],
      "name": "transferACoinEvent",
      "type": "event"
    },
    {
      "anonymous": false,
      "inputs": [
        {
          "indexed": false,
          "internalType": "address",
          "name": "_from",
          "type": "address"
        },
        {
          "indexed": false,
          "internalType": "address",
          "name": "_to",
          "type": "address"
        },
        {
          "indexed": false,
          "internalType": "string",
          "name": "_tokenId",
          "type": "string"
        },
        {
          "indexed": false,
          "internalType": "uint256",
          "name": "_units",
          "type": "uint256"
        },
        {
          "indexed": false,
          "internalType": "string",
          "name": "_message",
          "type": "string"
        }
      ],
      "name": "transferTokenEvent",
      "type": "event"
    },
    {
      "anonymous": false,
      "inputs": [
        {
          "indexed": false,
          "internalType": "uint256",
          "name": "_balance",
          "type": "uint256"
        },
        {
          "indexed": false,
          "internalType": "address payable",
          "name": "_caller",
          "type": "address"
        },
        {
          "indexed": false,
          "internalType": "string",
          "name": "_message",
          "type": "string"
        }
      ],
      "name": "unitsOwnedOfATokenEvent",
      "type": "event"
    },
    {
      "inputs": [],
      "name": "decimals",
      "outputs": [
        {
          "internalType": "uint8",
          "name": "",
          "type": "uint8"
        }
      ],
      "stateMutability": "view",
      "type": "function",
      "constant": true
    },
    {
      "inputs": [],
      "name": "name",
      "outputs": [
        {
          "internalType": "string",
          "name": "",
          "type": "string"
        }
      ],
      "stateMutability": "view",
      "type": "function",
      "constant": true
    },
    {
      "inputs": [],
      "name": "symbol",
      "outputs": [
        {
          "internalType": "string",
          "name": "",
          "type": "string"
        }
      ],
      "stateMutability": "view",
      "type": "function",
      "constant": true
    },
    {
      "inputs": [],
      "name": "tokenTotalSupply",
      "outputs": [
        {
          "internalType": "uint256",
          "name": "",
          "type": "uint256"
        }
      ],
      "stateMutability": "view",
      "type": "function",
      "constant": true
    },
    {
      "inputs": [],
      "name": "getAcoinTotalSupply",
      "outputs": [
        {
          "internalType": "uint256",
          "name": "",
          "type": "uint256"
        }
      ],
      "stateMutability": "view",
      "type": "function",
      "constant": true
    },
    {
      "inputs": [
        {
          "internalType": "address",
          "name": "acoinOwner",
          "type": "address"
        }
      ],
      "name": "acoinBalanceOf",
      "outputs": [
        {
          "internalType": "uint256",
          "name": "",
          "type": "uint256"
        }
      ],
      "stateMutability": "view",
      "type": "function",
      "constant": true
    },
    {
      "inputs": [
        {
          "internalType": "address",
          "name": "account",
          "type": "address"
        },
        {
          "internalType": "uint256",
          "name": "numACoins",
          "type": "uint256"
        },
        {
          "internalType": "address payable",
          "name": "_caller",
          "type": "address"
        }
      ],
      "name": "buyACoin",
      "outputs": [],
      "stateMutability": "payable",
      "type": "function",
      "payable": true
    },
    {
      "inputs": [
        {
          "internalType": "address",
          "name": "account",
          "type": "address"
        },
        {
          "internalType": "uint256",
          "name": "numACoins",
          "type": "uint256"
        },
        {
          "internalType": "address payable",
          "name": "_caller",
          "type": "address"
        }
      ],
      "name": "buyACoinINR",
      "outputs": [],
      "stateMutability": "payable",
      "type": "function",
      "payable": true
    },
    {
      "inputs": [
        {
          "internalType": "address payable",
          "name": "account",
          "type": "address"
        },
        {
          "internalType": "uint256",
          "name": "numACoins",
          "type": "uint256"
        },
        {
          "internalType": "address payable",
          "name": "_caller",
          "type": "address"
        }
      ],
      "name": "burnACoin",
      "outputs": [],
      "stateMutability": "payable",
      "type": "function",
      "payable": true
    },
    {
      "inputs": [
        {
          "internalType": "address payable",
          "name": "account",
          "type": "address"
        },
        {
          "internalType": "uint256",
          "name": "numACoins",
          "type": "uint256"
        },
        {
          "internalType": "address payable",
          "name": "_caller",
          "type": "address"
        }
      ],
      "name": "burnACoinINR",
      "outputs": [],
      "stateMutability": "payable",
      "type": "function",
      "payable": true
    },
    {
      "inputs": [
        {
          "internalType": "address",
          "name": "sender",
          "type": "address"
        },
        {
          "internalType": "address",
          "name": "receiver",
          "type": "address"
        },
        {
          "internalType": "uint256",
          "name": "numACoins",
          "type": "uint256"
        },
        {
          "internalType": "address payable",
          "name": "_caller",
          "type": "address"
        }
      ],
      "name": "transferACoin",
      "outputs": [
        {
          "internalType": "bool",
          "name": "",
          "type": "bool"
        }
      ],
      "stateMutability": "nonpayable",
      "type": "function"
    },
    {
      "inputs": [
        {
          "internalType": "string",
          "name": "_tokenId",
          "type": "string"
        }
      ],
      "name": "divisibilityOfAToken",
      "outputs": [
        {
          "internalType": "uint256",
          "name": "_divisibility",
          "type": "uint256"
        }
      ],
      "stateMutability": "view",
      "type": "function",
      "constant": true
    },
    {
      "inputs": [
        {
          "internalType": "string[]",
          "name": "_tokenIds",
          "type": "string[]"
        }
      ],
      "name": "divisibilityOfTokens",
      "outputs": [
        {
          "internalType": "uint256[]",
          "name": "_divisiblities",
          "type": "uint256[]"
        }
      ],
      "stateMutability": "view",
      "type": "function",
      "constant": true
    },
    {
      "inputs": [],
      "name": "totalSupplyView",
      "outputs": [
        {
          "internalType": "uint256",
          "name": "_totalSupply",
          "type": "uint256"
        }
      ],
      "stateMutability": "view",
      "type": "function",
      "constant": true
    },
    {
      "inputs": [
        {
          "internalType": "address",
          "name": "_owner",
          "type": "address"
        },
        {
          "internalType": "string",
          "name": "_tokenId",
          "type": "string"
        }
      ],
      "name": "unitsOwnedOfAToken",
      "outputs": [
        {
          "internalType": "uint256",
          "name": "_balance",
          "type": "uint256"
        }
      ],
      "stateMutability": "view",
      "type": "function",
      "constant": true
    },
    {
      "inputs": [
        {
          "internalType": "address",
          "name": "_owner",
          "type": "address"
        },
        {
          "internalType": "string",
          "name": "_tokenId",
          "type": "string"
        },
        {
          "internalType": "uint256",
          "name": "_noOfShares",
          "type": "uint256"
        },
        {
          "internalType": "address payable",
          "name": "_caller",
          "type": "address"
        }
      ],
      "name": "mint",
      "outputs": [],
      "stateMutability": "nonpayable",
      "type": "function"
    },
    {
      "inputs": [
        {
          "internalType": "address",
          "name": "_from",
          "type": "address"
        },
        {
          "internalType": "address",
          "name": "_to",
          "type": "address"
        },
        {
          "internalType": "string",
          "name": "_tokenId",
          "type": "string"
        },
        {
          "internalType": "uint256",
          "name": "_units",
          "type": "uint256"
        },
        {
          "internalType": "uint256",
          "name": "_price",
          "type": "uint256"
        }
      ],
      "name": "transferToken",
      "outputs": [],
      "stateMutability": "nonpayable",
      "type": "function"
    },
    {
      "inputs": [
        {
          "internalType": "address",
          "name": "_from",
          "type": "address"
        },
        {
          "internalType": "address",
          "name": "_to",
          "type": "address"
        },
        {
          "internalType": "string",
          "name": "_tokenId",
          "type": "string"
        },
        {
          "internalType": "uint256",
          "name": "_units",
          "type": "uint256"
        }
      ],
      "name": "getPrice",
      "outputs": [
        {
          "internalType": "uint256",
          "name": "",
          "type": "uint256"
        }
      ],
      "stateMutability": "view",
      "type": "function",
      "constant": true
    }
  ],
  "bytecode": "0x60806040526000600281905550600060088190555033600360006101000a81548173ffffffffffffffffffffffffffffffffffffffff021916908373ffffffffffffffffffffffffffffffffffffffff1602179055506126f7806100646000396000f3fe6080604052600436106101095760003560e01c806395d89b4111610095578063cc2da39811610064578063cc2da39814610349578063da32fcc814610372578063dcecd152146103af578063edc6fb6d146103ec578063f7abab9e1461041557610109565b806395d89b4114610267578063ad6a592614610292578063b38fd866146102cf578063bb559b1b1461030c57610109565b8063313ce567116100dc578063313ce567146101bd578063667e686e146101e85780637898cd18146102045780637f11f4481461022f5780638b652d171461024b57610109565b806306fdde031461010e5780630e4156ed146101395780631fdb3b991461016457806327978d84146101a1575b600080fd5b34801561011a57600080fd5b50610123610440565b604051610130919061149d565b60405180910390f35b34801561014557600080fd5b5061014e610479565b60405161015b91906114d8565b60405180910390f35b34801561017057600080fd5b5061018b600480360381019061018691906115cf565b610483565b6040516101989190611651565b60405180910390f35b6101bb60048036038101906101b6919061166c565b61063f565b005b3480156101c957600080fd5b506101d261072d565b6040516101df91906116db565b60405180910390f35b61020260048036038101906101fd91906116f6565b610732565b005b34801561021057600080fd5b5061021961086b565b60405161022691906114d8565b60405180910390f35b6102496004803603810190610244919061166c565b610875565b005b610265600480360381019061026091906116f6565b6109cc565b005b34801561027357600080fd5b5061027c610b4c565b604051610289919061149d565b60405180910390f35b34801561029e57600080fd5b506102b960048036038101906102b49190611964565b610b85565b6040516102c69190611a6b565b60405180910390f35b3480156102db57600080fd5b506102f660048036038101906102f19190611a8d565b610c56565b60405161030391906114d8565b60405180910390f35b34801561031857600080fd5b50610333600480360381019061032e9190611b10565b610d4a565b60405161034091906114d8565b60405180910390f35b34801561035557600080fd5b50610370600480360381019061036b9190611b6c565b610db0565b005b34801561037e57600080fd5b5061039960048036038101906103949190611c03565b610f36565b6040516103a691906114d8565b60405180910390f35b3480156103bb57600080fd5b506103d660048036038101906103d19190611c30565b610f7e565b6040516103e391906114d8565b60405180910390f35b3480156103f857600080fd5b50610413600480360381019061040e9190611c79565b610fa6565b005b34801561042157600080fd5b5061042a6110ec565b60405161043791906114d8565b60405180910390f35b6040518060400160405280600581526020017f41436f696e00000000000000000000000000000000000000000000000000000081525081565b6000600254905090565b60008060008673ffffffffffffffffffffffffffffffffffffffff1673ffffffffffffffffffffffffffffffffffffffff168152602001908152602001600020548311156104d057600080fd5b610521836000808873ffffffffffffffffffffffffffffffffffffffff1673ffffffffffffffffffffffffffffffffffffffff168152602001908152602001600020546110f290919063ffffffff16565b6000808773ffffffffffffffffffffffffffffffffffffffff1673ffffffffffffffffffffffffffffffffffffffff168152602001908152602001600020819055506105b4836000808773ffffffffffffffffffffffffffffffffffffffff1673ffffffffffffffffffffffffffffffffffffffff1681526020019081526020016000205461111990919063ffffffff16565b6000808673ffffffffffffffffffffffffffffffffffffffff1673ffffffffffffffffffffffffffffffffffffffff168152602001908152602001600020819055507f6992faa82ee29db844a27cdd697868a4945bd323777aec54f05f6f22f0bc7faa8585858560405161062b9493929190611d66565b60405180910390a160019050949350505050565b610690826000808673ffffffffffffffffffffffffffffffffffffffff1673ffffffffffffffffffffffffffffffffffffffff1681526020019081526020016000205461111990919063ffffffff16565b6000808573ffffffffffffffffffffffffffffffffffffffff1673ffffffffffffffffffffffffffffffffffffffff168152602001908152602001600020819055506106e78260025461111990919063ffffffff16565b6002819055507fbede3305fe481e413eaade53b312c675c1175b3d4af6f726955e7d804490b38783838360405161072093929190611e0a565b60405180910390a1505050565b601281565b816000808573ffffffffffffffffffffffffffffffffffffffff1673ffffffffffffffffffffffffffffffffffffffff16815260200190815260200160002054101561077d57600080fd5b6107ce826000808673ffffffffffffffffffffffffffffffffffffffff1673ffffffffffffffffffffffffffffffffffffffff168152602001908152602001600020546110f290919063ffffffff16565b6000808573ffffffffffffffffffffffffffffffffffffffff1673ffffffffffffffffffffffffffffffffffffffff16815260200190815260200160002081905550610825826002546110f290919063ffffffff16565b6002819055507f8e816e6fd99201796ba50f4a40037bc93da03367d6065eab033cad31200c007483838360405161085e93929190611eff565b60405180910390a1505050565b6000600854905090565b6108c6826000808673ffffffffffffffffffffffffffffffffffffffff1673ffffffffffffffffffffffffffffffffffffffff1681526020019081526020016000205461111990919063ffffffff16565b6000808573ffffffffffffffffffffffffffffffffffffffff1673ffffffffffffffffffffffffffffffffffffffff1681526020019081526020016000208190555061091d8260025461111990919063ffffffff16565b600281905550600360009054906101000a900473ffffffffffffffffffffffffffffffffffffffff1673ffffffffffffffffffffffffffffffffffffffff166108fc349081150290604051600060405180830381858888f1935050505015801561098b573d6000803e3d6000fd5b507ff316e092b0518493864304254ed96b5deadf34e2653c7fd788885c40325987628383836040516109bf93929190611f95565b60405180910390a1505050565b816000808573ffffffffffffffffffffffffffffffffffffffff1673ffffffffffffffffffffffffffffffffffffffff168152602001908152602001600020541015610a1757600080fd5b610a68826000808673ffffffffffffffffffffffffffffffffffffffff1673ffffffffffffffffffffffffffffffffffffffff168152602001908152602001600020546110f290919063ffffffff16565b6000808573ffffffffffffffffffffffffffffffffffffffff1673ffffffffffffffffffffffffffffffffffffffff16815260200190815260200160002081905550610abf826002546110f290919063ffffffff16565b6002819055508273ffffffffffffffffffffffffffffffffffffffff166108fc349081150290604051600060405180830381858888f19350505050158015610b0b573d6000803e3d6000fd5b507f6ec61e14a95cf5c673e41b0b4c2b336914e7f7fc7ec0d27d24cdc75c309fc0f5838383604051610b3f9392919061202b565b60405180910390a1505050565b6040518060400160405280600581526020017f41434e465400000000000000000000000000000000000000000000000000000081525081565b60606000825167ffffffffffffffff811115610ba457610ba361174e565b5b604051908082528060200260200182016040528015610bd25781602001602082028036833780820191505090505b50905060005b8351811015610c4c576007848281518110610bf657610bf5612075565b5b6020026020010151604051610c0b91906120e0565b908152602001604051809103902054828281518110610c2d57610c2c612075565b5b6020026020010181815250508080610c4490612126565b915050610bd8565b5080915050919050565b60008260011515600682604051610c6d91906120e0565b908152602001604051809103902060009054906101000a900460ff16151514610c9557600080fd5b600160008773ffffffffffffffffffffffffffffffffffffffff1673ffffffffffffffffffffffffffffffffffffffff16815260200190815260200160002060008673ffffffffffffffffffffffffffffffffffffffff1673ffffffffffffffffffffffffffffffffffffffff16815260200190815260200160002084604051610d1f91906120e0565b9081526020016040518091039020600084815260200190815260200160002054915050949350505050565b6000600460008473ffffffffffffffffffffffffffffffffffffffff1673ffffffffffffffffffffffffffffffffffffffff16815260200190815260200160002082604051610d9991906120e0565b908152602001604051809103902054905092915050565b81600460008773ffffffffffffffffffffffffffffffffffffffff1673ffffffffffffffffffffffffffffffffffffffff16815260200190815260200160002084604051610dfe91906120e0565b9081526020016040518091039020541015610e1857600080fd5b80600160008773ffffffffffffffffffffffffffffffffffffffff1673ffffffffffffffffffffffffffffffffffffffff16815260200190815260200160002060008673ffffffffffffffffffffffffffffffffffffffff1673ffffffffffffffffffffffffffffffffffffffff16815260200190815260200160002084604051610ea391906120e0565b9081526020016040518091039020600084815260200190815260200160002081905550610ed1858484611145565b610edc8584846111f7565b610ee78484846112a9565b610ef284848461135b565b7f3c4d3746385ed80eba6f5197c1585791c2b6b82c6df5ee058898bbd7123c155a85858585604051610f2794939291906121e0565b60405180910390a15050505050565b60008060008373ffffffffffffffffffffffffffffffffffffffff1673ffffffffffffffffffffffffffffffffffffffff168152602001908152602001600020549050919050565b6000600782604051610f9091906120e0565b9081526020016040518091039020549050919050565b8260001515600682604051610fbb91906120e0565b908152602001604051809103902060009054906101000a900460ff16151514610fe357600080fd5b82600785604051610ff491906120e0565b908152602001604051809103902081905550600160068560405161101891906120e0565b908152602001604051809103902060006101000a81548160ff021916908315150217905550611066858560078760405161105291906120e0565b9081526020016040518091039020546112a9565b61108f858560078760405161107b91906120e0565b90815260200160405180910390205461135b565b600160085461109e919061223f565b6008819055507f085d194830b068dc5452abc86ba006ddf00bc2b834246f02368b02f35af93eb2858585600854866040516110dd9594939291906122e5565b60405180910390a15050505050565b60085481565b60008282111561110557611104612352565b5b81836111119190612381565b905092915050565b6000808284611128919061223f565b90508381101561113b5761113a612352565b5b8091505092915050565b80600460008573ffffffffffffffffffffffffffffffffffffffff1673ffffffffffffffffffffffffffffffffffffffff1681526020019081526020016000208360405161119391906120e0565b908152602001604051809103902060008282546111b09190612381565b925050819055507fc5ea0978ea025b7ba276ad87c92312b49f89b92e270d1a144892e691aaa519948383836040516111ea93929190612427565b60405180910390a1505050565b8060058360405161120891906120e0565b908152602001604051809103902060008573ffffffffffffffffffffffffffffffffffffffff1673ffffffffffffffffffffffffffffffffffffffff16815260200190815260200160002060008282546112629190612381565b925050819055507fb96797672c131c6b628956baf6f18617d3259c5bc34f9fb212e0dee0be1f85d283838360405161129c939291906124ea565b60405180910390a1505050565b80600460008573ffffffffffffffffffffffffffffffffffffffff1673ffffffffffffffffffffffffffffffffffffffff168152602001908152602001600020836040516112f791906120e0565b90815260200160405180910390206000828254611314919061223f565b925050819055507f3bae02c124e066bd127e74308d39367a5551b27ae5e0fc40a1995b281b515c4783838360405161134e939291906125ad565b60405180910390a1505050565b8060058360405161136c91906120e0565b908152602001604051809103902060008573ffffffffffffffffffffffffffffffffffffffff1673ffffffffffffffffffffffffffffffffffffffff16815260200190815260200160002060008282546113c6919061223f565b925050819055507f654a7fac15156d451ea50ecbbec11c6cadf9780d37f91ad27c05a7175a838de083838360405161140093929190612670565b60405180910390a1505050565b600081519050919050565b600082825260208201905092915050565b60005b8381101561144757808201518184015260208101905061142c565b60008484015250505050565b6000601f19601f8301169050919050565b600061146f8261140d565b6114798185611418565b9350611489818560208601611429565b61149281611453565b840191505092915050565b600060208201905081810360008301526114b78184611464565b905092915050565b6000819050919050565b6114d2816114bf565b82525050565b60006020820190506114ed60008301846114c9565b92915050565b6000604051905090565b600080fd5b600080fd5b600073ffffffffffffffffffffffffffffffffffffffff82169050919050565b600061153282611507565b9050919050565b61154281611527565b811461154d57600080fd5b50565b60008135905061155f81611539565b92915050565b61156e816114bf565b811461157957600080fd5b50565b60008135905061158b81611565565b92915050565b600061159c82611507565b9050919050565b6115ac81611591565b81146115b757600080fd5b50565b6000813590506115c9816115a3565b92915050565b600080600080608085870312156115e9576115e86114fd565b5b60006115f787828801611550565b945050602061160887828801611550565b93505060406116198782880161157c565b925050606061162a878288016115ba565b91505092959194509250565b60008115159050919050565b61164b81611636565b82525050565b60006020820190506116666000830184611642565b92915050565b600080600060608486031215611685576116846114fd565b5b600061169386828701611550565b93505060206116a48682870161157c565b92505060406116b5868287016115ba565b9150509250925092565b600060ff82169050919050565b6116d5816116bf565b82525050565b60006020820190506116f060008301846116cc565b92915050565b60008060006060848603121561170f5761170e6114fd565b5b600061171d868287016115ba565b935050602061172e8682870161157c565b925050604061173f868287016115ba565b9150509250925092565b600080fd5b7f4e487b7100000000000000000000000000000000000000000000000000000000600052604160045260246000fd5b61178682611453565b810181811067ffffffffffffffff821117156117a5576117a461174e565b5b80604052505050565b60006117b86114f3565b90506117c4828261177d565b919050565b600067ffffffffffffffff8211156117e4576117e361174e565b5b602082029050602081019050919050565b600080fd5b600080fd5b600067ffffffffffffffff82111561181a5761181961174e565b5b61182382611453565b9050602081019050919050565b82818337600083830152505050565b600061185261184d846117ff565b6117ae565b90508281526020810184848401111561186e5761186d6117fa565b5b611879848285611830565b509392505050565b600082601f83011261189657611895611749565b5b81356118a684826020860161183f565b91505092915050565b60006118c26118bd846117c9565b6117ae565b905080838252602082019050602084028301858111156118e5576118e46117f5565b5b835b8181101561192c57803567ffffffffffffffff81111561190a57611909611749565b5b8086016119178982611881565b855260208501945050506020810190506118e7565b5050509392505050565b600082601f83011261194b5761194a611749565b5b813561195b8482602086016118af565b91505092915050565b60006020828403121561197a576119796114fd565b5b600082013567ffffffffffffffff81111561199857611997611502565b5b6119a484828501611936565b91505092915050565b600081519050919050565b600082825260208201905092915050565b6000819050602082019050919050565b6119e2816114bf565b82525050565b60006119f483836119d9565b60208301905092915050565b6000602082019050919050565b6000611a18826119ad565b611a2281856119b8565b9350611a2d836119c9565b8060005b83811015611a5e578151611a4588826119e8565b9750611a5083611a00565b925050600181019050611a31565b5085935050505092915050565b60006020820190508181036000830152611a858184611a0d565b905092915050565b60008060008060808587031215611aa757611aa66114fd565b5b6000611ab587828801611550565b9450506020611ac687828801611550565b935050604085013567ffffffffffffffff811115611ae757611ae6611502565b5b611af387828801611881565b9250506060611b048782880161157c565b91505092959194509250565b60008060408385031215611b2757611b266114fd565b5b6000611b3585828601611550565b925050602083013567ffffffffffffffff811115611b5657611b55611502565b5b611b6285828601611881565b9150509250929050565b600080600080600060a08688031215611b8857611b876114fd565b5b6000611b9688828901611550565b9550506020611ba788828901611550565b945050604086013567ffffffffffffffff811115611bc857611bc7611502565b5b611bd488828901611881565b9350506060611be58882890161157c565b9250506080611bf68882890161157c565b9150509295509295909350565b600060208284031215611c1957611c186114fd565b5b6000611c2784828501611550565b91505092915050565b600060208284031215611c4657611c456114fd565b5b600082013567ffffffffffffffff811115611c6457611c63611502565b5b611c7084828501611881565b91505092915050565b60008060008060808587031215611c9357611c926114fd565b5b6000611ca187828801611550565b945050602085013567ffffffffffffffff811115611cc257611cc1611502565b5b611cce87828801611881565b9350506040611cdf8782880161157c565b9250506060611cf0878288016115ba565b91505092959194509250565b611d0581611527565b82525050565b611d1481611591565b82525050565b7f7472616e73666572436f696e0000000000000000000000000000000000000000600082015250565b6000611d50600c83611418565b9150611d5b82611d1a565b602082019050919050565b600060a082019050611d7b6000830187611cfc565b611d886020830186611cfc565b611d9560408301856114c9565b611da26060830184611d0b565b8181036080830152611db381611d43565b905095945050505050565b7f62757941436f696e494e52000000000000000000000000000000000000000000600082015250565b6000611df4600b83611418565b9150611dff82611dbe565b602082019050919050565b6000608082019050611e1f6000830186611cfc565b611e2c60208301856114c9565b611e396040830184611d0b565b8181036060830152611e4a81611de7565b9050949350505050565b6000819050919050565b6000611e79611e74611e6f84611507565b611e54565b611507565b9050919050565b6000611e8b82611e5e565b9050919050565b6000611e9d82611e80565b9050919050565b611ead81611e92565b82525050565b7f6275726e41436f696e494e520000000000000000000000000000000000000000600082015250565b6000611ee9600c83611418565b9150611ef482611eb3565b602082019050919050565b6000608082019050611f146000830186611ea4565b611f2160208301856114c9565b611f2e6040830184611d0b565b8181036060830152611f3f81611edc565b9050949350505050565b7f62757941436f696e000000000000000000000000000000000000000000000000600082015250565b6000611f7f600883611418565b9150611f8a82611f49565b602082019050919050565b6000608082019050611faa6000830186611cfc565b611fb760208301856114c9565b611fc46040830184611d0b565b8181036060830152611fd581611f72565b9050949350505050565b7f6275726e41436f696e0000000000000000000000000000000000000000000000600082015250565b6000612015600983611418565b915061202082611fdf565b602082019050919050565b60006080820190506120406000830186611ea4565b61204d60208301856114c9565b61205a6040830184611d0b565b818103606083015261206b81612008565b9050949350505050565b7f4e487b7100000000000000000000000000000000000000000000000000000000600052603260045260246000fd5b600081905092915050565b60006120ba8261140d565b6120c481856120a4565b93506120d4818560208601611429565b80840191505092915050565b60006120ec82846120af565b915081905092915050565b7f4e487b7100000000000000000000000000000000000000000000000000000000600052601160045260246000fd5b6000612131826114bf565b91507fffffffffffffffffffffffffffffffffffffffffffffffffffffffffffffffff8203612163576121626120f7565b5b600182019050919050565b7f7472616e73666572202d207472616e73666572207061727473206f662061207460008201527f6f6b656e20746f20616e6f746865722075736572000000000000000000000000602082015250565b60006121ca603483611418565b91506121d58261216e565b604082019050919050565b600060a0820190506121f56000830187611cfc565b6122026020830186611cfc565b81810360408301526122148185611464565b905061222360608301846114c9565b8181036080830152612234816121bd565b905095945050505050565b600061224a826114bf565b9150612255836114bf565b925082820190508082111561226d5761226c6120f7565b5b92915050565b7f6d696e74202d204d696e74696e67206772616e74732031303025206f6620746860008201527f6520746f6b656e20746f2061206e6577206f776e657200000000000000000000602082015250565b60006122cf603683611418565b91506122da82612273565b604082019050919050565b600060c0820190506122fa6000830188611cfc565b818103602083015261230c8187611464565b905061231b60408301866114c9565b61232860608301856114c9565b6123356080830184611d0b565b81810360a0830152612346816122c2565b90509695505050505050565b7f4e487b7100000000000000000000000000000000000000000000000000000000600052600160045260246000fd5b600061238c826114bf565b9150612397836114bf565b92508282039050818111156123af576123ae6120f7565b5b92915050565b7f5f72656d6f7665536861726546726f6d4c6173744f776e6572202d2052656d6f60008201527f766520746f6b656e20756e6974732066726f6d206c617374206f776e65720000602082015250565b6000612411603e83611418565b915061241c826123b5565b604082019050919050565b600060808201905061243c6000830186611cfc565b818103602083015261244e8185611464565b905061245d60408301846114c9565b818103606083015261246e81612404565b9050949350505050565b7f5f72656d6f76654c6173744f776e6572486f6c64696e677346726f6d546f6b6560008201527f6e202d2052656d6f766520756e6974732066726f6d206c617374206f776e6572602082015250565b60006124d4604083611418565b91506124df82612478565b604082019050919050565b60006080820190506124ff6000830186611cfc565b81810360208301526125118185611464565b905061252060408301846114c9565b8181036060830152612531816124c7565b9050949350505050565b7f5f6164645368617265546f4e65774f776e6572202d2041646420746f6b656e2060008201527f756e69747320746f206e6577206f776e65720000000000000000000000000000602082015250565b6000612597603283611418565b91506125a28261253b565b604082019050919050565b60006080820190506125c26000830186611cfc565b81810360208301526125d48185611464565b90506125e360408301846114c9565b81810360608301526125f48161258a565b9050949350505050565b7f5f6164644e65774f776e6572486f6c64696e6773546f546f6b656e202d20416460008201527f642074686520756e69747320746f206e6577206f776e65720000000000000000602082015250565b600061265a603883611418565b9150612665826125fe565b604082019050919050565b60006080820190506126856000830186611cfc565b81810360208301526126978185611464565b90506126a660408301846114c9565b81810360608301526126b78161264d565b905094935050505056fea2646970667358221220a4721ee73f3b2b6bc4228d84bb2e8ceb3554cd3cd5d6a7e97eff270f62634a4d64736f6c63430008100033",
  "immutableReferences": {},
  "source": "// SPDX-License-Identifier: MIT\r\npragma solidity ^0.8.9;\r\n\r\ncontract DivisibleNFTs {\r\n    using SafeMath for uint256;\r\n\r\n    // ----------------------- Variables for ACoin ------------------------\r\n    string public constant name = \"ACoin\"; // Name of the coin\r\n    string public constant symbol = \"ACNFT\"; // Ticker for ACoin\r\n    uint8 public constant decimals = 18; // Precision of use for the ACoin\r\n    mapping(address => uint256) acoinBalances; // ACoin balances of the Traders\r\n    mapping(address => mapping(address => mapping(string => mapping(uint => uint)))) confirmedPrice;\r\n    uint256 acoinTotalSupply; // Total supply of the ACoin\r\n    address payable owner;\r\n\r\n    // ------------------------------ All Events ------------------------------\r\n\tevent unitsOwnedOfATokenEvent(uint256  _balance, address payable _caller, string _message);\r\n\r\n\tevent divisibilityEvent(uint256 _divisibility, address payable _caller, string _message);\r\n\r\n\tevent mintEvent(address _owner, string _tokenId, uint _noOfShares, uint _tokenTotalSupply, address payable _caller, string _message);\r\n\r\n\tevent transferTokenEvent(address _from, address _to, string _tokenId, uint _units, string _message);\r\n\r\n\tevent totalSupplyEvent(uint256 _totalSupply, address payable _caller, string _message);\r\n\r\n\tevent buyACoinEvent(address _account, uint _numACoins, address payable _caller, string _message);\r\n\r\n\tevent buyACoinINREvent(address _account, uint _numACoins, address payable _caller, string _message);\r\n\r\n\tevent burnACoinEvent(address _account, uint _numACoins, address payable _caller, string _message);\r\n\t\r\n    event burnACoinINREvent(address _account, uint _numACoins, address payable _caller, string _message);\r\n\r\n    event transferACoinEvent(address _from, address _to, uint _numACoins,  address payable _caller, string _message);\r\n\r\n\tevent getAcoinTotalSupplyEvent( uint _acoinTotalSupply, address payable _caller, string _message);\r\n\r\n\tevent acoinBalanceOfEvent(uint _acoinBalance, address payable _caller, string _message);\r\n\r\n    event removeShareEvent(address _owner, string _tokenId, uint256 _units,  string _message);\r\n\r\n    event addShareEvent(address _owner, string _tokenId, uint256 _units,  string _message);\r\n\r\n    event removeOwnerHoldingsEvent(address _owner, string _tokenId, uint256 _units,  string _message);\r\n\r\n    event addOwnerHoldingsEvent(address _owner, string _tokenId, uint256 _units,  string _message);\r\n\r\n    // ----------------------- Variables for Non Fungible Token Management------------------------\r\n\r\n    // Percentage of ownership over a token\r\n    mapping(address => mapping(string => uint256)) ownerToTokenShare;\r\n    // {user_account_address --> tokenId --> amount_holded_of_that_tokenId_by_that_address}\r\n\r\n    // How much owners have of a token\r\n    mapping(string => mapping(address => uint256)) tokenToOwnersHoldings;\r\n    // {tokenId --> user_account_address --> amount_holded_of_that_tokenId_by_that_address}\r\n\r\n    // If a token has been created\r\n    mapping(string => bool) mintedToken;\r\n    // tokenId --> returns true or false if the token with that Id is minted\r\n\r\n    // Number of equal(fungible) units that constitute a token (that a token can be divised to)\r\n    mapping(string => uint256) divisibility; // All tokens would have a different divisibilit factor\r\n    // Divisibility for each token is basically the amount of shares that NFT has\r\n\r\n    // total of managed/tracked tokens by this smart contract\r\n    uint256 public tokenTotalSupply;\r\n\r\n    // ------------------------------ Constructor ------------------------------\r\n    constructor() payable {\r\n        acoinTotalSupply = 0;\r\n\t\ttokenTotalSupply = 0;\r\n        owner = payable(msg.sender);\r\n    }\r\n\r\n    // ====================== Everything related to ACoin =========================\r\n\r\n    // ------------------------------ Modifiers ------------------------------\r\n    // Modifier to check that the caller is the owner of\r\n    // the contract.\r\n    modifier onlyOwner() {\r\n        require(\r\n            msg.sender == owner,\r\n            \"Only owner can invoke the transfer of ACoins\"\r\n        );\r\n        _;\r\n    }\r\n\r\n    // ------------------------------ View functions ------------------------------\r\n\r\n    /// @dev The total ACoins in circulation at the moment of invocation of this function\r\n    function getAcoinTotalSupply() public view returns (uint256) {\r\n\t\t// emit getAcoinTotalSupplyEvent(acoinTotalSupply, _caller, \"getAcoinTotalSupply\");\r\n        return acoinTotalSupply;\r\n    }\r\n\r\n    /// @dev The ACoin balance of that address\r\n    function acoinBalanceOf(address acoinOwner) public view returns (uint256) {\r\n\t\t// emit acoinBalanceOfEvent( acoinBalances[acoinOwner], _caller, \"acoinBalanceOf\");\r\n        return acoinBalances[acoinOwner];\r\n    }\r\n\r\n    \r\n\r\n    // ------------------------------ Core public functions ------------------------------\r\n    \r\n\t/// @dev Buying ACoin, transferring ETH to owner\r\n    function buyACoin(address account, uint numACoins, address payable _caller)\r\n\t\tpayable\r\n        public \r\n    {\r\n        acoinBalances[account] = acoinBalances[account].add(numACoins);\r\n\t\tacoinTotalSupply = acoinTotalSupply.add(numACoins);\r\n        payable(owner).transfer(msg.value);\r\n\t\t// payable(owner).transfer(numACoins);\r\n        emit buyACoinEvent(account, numACoins, _caller, \"buyACoin\");\r\n    }\r\n\r\n    /// @dev Buying ACoin, transferring INR\r\n    function buyACoinINR(address account, uint numACoins, address payable _caller)\r\n\t\tpayable\r\n        public \r\n    {\r\n        acoinBalances[account] = acoinBalances[account].add(numACoins);\r\n\t\tacoinTotalSupply = acoinTotalSupply.add(numACoins);\r\n        // payable(owner).transfer(msg.value);\r\n\t\t// payable(owner).transfer(numACoins);\r\n        emit buyACoinINREvent(account, numACoins, _caller, \"buyACoinINR\");\r\n    }\r\n\r\n\t/// @dev Withdrawing ETH from ACoin, transferring ETH to user from owner\r\n    function burnACoin(address payable account, uint numACoins, address payable _caller)\r\n\t\tpayable\r\n        public \r\n        \r\n    {\r\n\t\trequire(acoinBalances[account] >= numACoins);\r\n        acoinBalances[account] = acoinBalances[account].sub(numACoins);\r\n\t\tacoinTotalSupply = acoinTotalSupply.sub(numACoins);\r\n        payable(account).transfer(msg.value);\r\n\t\t// payable(account).transfer(numACoins);\r\n        emit burnACoinEvent(account, numACoins, _caller, \"burnACoin\");\r\n    }\r\n\r\n    /// @dev Withdrawing ETH from ACoin, transferring ETH to user from owner\r\n    function burnACoinINR(address payable account, uint numACoins, address payable _caller)\r\n\t\tpayable\r\n        public \r\n        \r\n    {\r\n\t\trequire(acoinBalances[account] >= numACoins);\r\n        acoinBalances[account] = acoinBalances[account].sub(numACoins);\r\n\t\tacoinTotalSupply = acoinTotalSupply.sub(numACoins);\r\n        // payable(account).transfer(msg.value);\r\n\t\t// payable(account).transfer(numACoins);\r\n        emit burnACoinINREvent(account, numACoins, _caller, \"burnACoinINR\");\r\n    }\r\n\t\r\n\t/// @dev Transferring ACoin from one user account to another\r\n    function transferACoin(address sender, address receiver, uint256 numACoins, address payable _caller)\r\n        public\r\n        returns (bool)\r\n    {\r\n        require(numACoins <= acoinBalances[sender]);\r\n        acoinBalances[sender] = acoinBalances[sender].sub(numACoins);\r\n        acoinBalances[receiver] = acoinBalances[receiver].add(numACoins);\r\n        emit transferACoinEvent(sender, receiver, numACoins, _caller, \"transferCoin\");\r\n        return true;\r\n    }\r\n\r\n\r\n    // ====================== Everything related to Dividing the NFT =========================\r\n    // ------------------------------ Modifiers ------------------------------\r\n\r\n    modifier onlyNonExistentToken(string memory _tokenId) {\r\n        require(mintedToken[_tokenId] == false);\r\n        _;\r\n    }\r\n\r\n    modifier onlyExistentToken(string memory _tokenId) {\r\n        require(mintedToken[_tokenId] == true);\r\n        _;\r\n    }\r\n\r\n    // ------------------------------ View functions ------------------------------\r\n\r\n    /// @dev The divisiblity amount of a token\r\n\tfunction divisibilityOfAToken(string memory _tokenId) public view returns (uint _divisibility)\r\n\t{\r\n\t\t// emit divisibilityEvent(divisibility[_tokenId], _caller, \"divisibilityOfAToken - The divisiblity amount of a token\");\r\n\t    return divisibility[_tokenId];\r\n\t}\r\n\r\n    function divisibilityOfTokens(string[] memory _tokenIds) public view returns (uint[] memory _divisiblities) {\r\n        uint[] memory divisiblities = new uint[](_tokenIds.length);\r\n        for(uint i = 0; i < _tokenIds.length; i++) {\r\n            divisiblities[i] = divisibility[_tokenIds[i]];\r\n        }\r\n\r\n        return divisiblities;\r\n    }\r\n\r\n\t/// @dev The amount of a totalSupply\r\n    // Earlier totalSupplyView()\r\n\tfunction totalSupplyView() public view returns (uint _totalSupply)\r\n\t{\r\n\t\t// emit totalSupplyEvent(tokenTotalSupply, _caller, \"totalSupplyView\");\r\n\t    return tokenTotalSupply;\r\n\t}\r\n\r\n    /// @dev The balance an owner have of a token\r\n    function unitsOwnedOfAToken(address _owner, string memory _tokenId)\r\n        public view\r\n        returns (uint256 _balance)\r\n    {\r\n\t\t// emit unitsOwnedOfATokenEvent(ownerToTokenShare[_owner][_tokenId], _caller, \"unitsOwnedOfAToken\");\r\n        return ownerToTokenShare[_owner][_tokenId];\r\n    }\r\n\r\n    // ------------------------------ Core public functions ------------------------------\r\n\r\n    /// @dev Anybody can create a token in our example\r\n    /// @notice Minting grants 100% of the token to a new owner in our example\r\n    function mint(\r\n        address _owner,\r\n        string memory _tokenId,\r\n        uint256 _noOfShares,\r\n        address payable _caller\r\n    ) public onlyNonExistentToken(_tokenId) {\r\n\r\n        divisibility[_tokenId] = _noOfShares;\r\n\r\n        mintedToken[_tokenId] = true;\r\n\r\n        _addShareToNewOwner(_owner, _tokenId, divisibility[_tokenId]);\r\n        _addNewOwnerHoldingsToToken(_owner, _tokenId, divisibility[_tokenId]);\r\n\r\n        tokenTotalSupply = tokenTotalSupply + 1;\r\n        emit mintEvent(_owner, _tokenId, _noOfShares, tokenTotalSupply, _caller, \"mint - Minting grants 100% of the token to a new owner\");\r\n\r\n        //Minted(_owner, _tokenId); // emit event\r\n    }\r\n\r\n    /// @dev transfer parts of a token to another user\r\n    // Earlier transfer(_from, _to, _tokenId, _units)\r\n    function transferToken(\r\n        address _from,\r\n        address _to,\r\n        string memory _tokenId,\r\n        uint256 _units,\r\n        uint256 _price\r\n    ) public {\r\n        require(ownerToTokenShare[_from][_tokenId] >= _units);\r\n        // TODO should check _to address to avoid losing tokens units\r\n\r\n        confirmedPrice[_from][_to][_tokenId][_units] = _price;\r\n\r\n        _removeShareFromLastOwner(_from, _tokenId, _units);\r\n        _removeLastOwnerHoldingsFromToken(_from, _tokenId, _units);\r\n\r\n        _addShareToNewOwner(_to, _tokenId, _units);\r\n        _addNewOwnerHoldingsToToken(_to, _tokenId, _units);\r\n        emit transferTokenEvent(_from,  _to,  _tokenId,  _units, \"transfer - transfer parts of a token to another user\");\r\n\r\n        //Transfer(msg.sender, _to, _tokenId, _units); // emit event\r\n    }\r\n\r\n    function getPrice(\r\n        address _from,\r\n        address _to,\r\n        string memory _tokenId,\r\n        uint256 _units\r\n    ) public view onlyExistentToken(_tokenId) returns(uint) {\r\n        \r\n        return confirmedPrice[_from][_to][_tokenId][_units];\r\n        // emit transferTokenEvent(_from,  _to,  _tokenId,  _units, _caller, \"transfer - transfer parts of a token to another user\");\r\n\r\n        //Transfer(msg.sender, _to, _tokenId, _units); // emit event\r\n    }\r\n\r\n\r\n    // ------------------------------ Helper functions (internal functions) ------------------------------\r\n\r\n    // Remove token units from last owner\r\n    function _removeShareFromLastOwner(\r\n        address _owner,\r\n        string memory _tokenId,\r\n        uint256 _units\r\n    ) internal {\r\n        ownerToTokenShare[_owner][_tokenId] -= _units;\r\n        emit removeShareEvent(_owner, _tokenId, _units, \"_removeShareFromLastOwner - Remove token units from last owner\");\r\n\r\n    }\r\n\r\n    // Add token units to new owner\r\n    function _addShareToNewOwner(\r\n        address _owner,\r\n        string memory _tokenId,\r\n        uint256 _units\r\n    ) internal {\r\n        ownerToTokenShare[_owner][_tokenId] += _units;\r\n        emit addShareEvent(_owner, _tokenId, _units, \"_addShareToNewOwner - Add token units to new owner\");\r\n\r\n    }\r\n\r\n    // Remove units from last owner\r\n    function _removeLastOwnerHoldingsFromToken(\r\n        address _owner,\r\n        string memory _tokenId,\r\n        uint256 _units\r\n    ) internal {\r\n        tokenToOwnersHoldings[_tokenId][_owner] -= _units;\r\n        emit removeOwnerHoldingsEvent(_owner, _tokenId, _units, \"_removeLastOwnerHoldingsFromToken - Remove units from last owner\");\r\n\r\n    }\r\n\r\n    // Add the units to new owner\r\n    function _addNewOwnerHoldingsToToken(\r\n        address _owner,\r\n        string memory _tokenId,\r\n        uint256 _units\r\n    ) internal {\r\n        tokenToOwnersHoldings[_tokenId][_owner] += _units;\r\n        emit addOwnerHoldingsEvent(_owner, _tokenId, _units, \"_addNewOwnerHoldingsToToken - Add the units to new owner\");\r\n\r\n    }\r\n}\r\n\r\n\r\nlibrary SafeMath {\r\n    function sub(uint256 a, uint256 b) internal pure returns (uint256) {\r\n        assert(b <= a);\r\n        return a - b;\r\n    }\r\n\r\n    function add(uint256 a, uint256 b) internal pure returns (uint256) {\r\n        uint256 c = a + b;\r\n        assert(c >= a);\r\n        return c;\r\n    }\r\n}",
  "sourcePath": "D:\\Desktop\\fungtrix\\fungtrix-server\\blockchain\\contracts\\DivisibleNFTs.sol",
  "compiler": {
    "name": "solc",
    "version": "0.8.16+commit.07a7930e.Emscripten.clang"
  },
  "schemaVersion": "3.4.10",
  "updatedAt": "2023-02-25T04:38:00.844Z",
  "networkType": "ethereum",
  "devdoc": {
    "kind": "dev",
    "methods": {
      "acoinBalanceOf(address)": {
        "details": "The ACoin balance of that address"
      },
      "burnACoin(address,uint256,address)": {
        "details": "Withdrawing ETH from ACoin, transferring ETH to user from owner"
      },
      "burnACoinINR(address,uint256,address)": {
        "details": "Withdrawing ETH from ACoin, transferring ETH to user from owner"
      },
      "buyACoin(address,uint256,address)": {
        "details": "Buying ACoin, transferring ETH to owner"
      },
      "buyACoinINR(address,uint256,address)": {
        "details": "Buying ACoin, transferring INR"
      },
      "divisibilityOfAToken(string)": {
        "details": "The divisiblity amount of a token"
      },
      "getAcoinTotalSupply()": {
        "details": "The total ACoins in circulation at the moment of invocation of this function"
      },
      "mint(address,string,uint256,address)": {
        "details": "Anybody can create a token in our example"
      },
      "totalSupplyView()": {
        "details": "The amount of a totalSupply"
      },
      "transferACoin(address,address,uint256,address)": {
        "details": "Transferring ACoin from one user account to another"
      },
      "transferToken(address,address,string,uint256,uint256)": {
        "details": "transfer parts of a token to another user"
      },
      "unitsOwnedOfAToken(address,string)": {
        "details": "The balance an owner have of a token"
      }
    },
    "version": 1
  },
  "userdoc": {
    "kind": "user",
    "methods": {
      "mint(address,string,uint256,address)": {
        "notice": "Minting grants 100% of the token to a new owner in our example"
      }
    },
    "version": 1
  }
}